{
  "contractName": "SocialRecoveryWallet",
  "abi": [
    {
      "inputs": [
        {
          "internalType": "uint256",
          "name": "_threshold",
          "type": "uint256"
        },
        {
          "internalType": "address[]",
          "name": "_initialGuardians",
          "type": "address[]"
        }
      ],
      "stateMutability": "nonpayable",
      "type": "constructor"
    },
    {
      "anonymous": false,
      "inputs": [
        {
          "indexed": false,
          "internalType": "address",
          "name": "contractAddress",
          "type": "address"
        },
        {
          "indexed": false,
          "internalType": "uint256",
          "name": "totalether",
          "type": "uint256"
        },
        {
          "indexed": false,
          "internalType": "uint256",
          "name": "deposit",
          "type": "uint256"
        }
      ],
      "name": "DepositMoneySuccess",
      "type": "event"
    },
    {
      "anonymous": false,
      "inputs": [
        {
          "indexed": false,
          "internalType": "address",
          "name": "contractAddress",
          "type": "address"
        },
        {
          "indexed": false,
          "internalType": "uint256",
          "name": "currentRecoveryRound",
          "type": "uint256"
        },
        {
          "indexed": false,
          "internalType": "address",
          "name": "guardianAddr",
          "type": "address"
        },
        {
          "indexed": false,
          "internalType": "address",
          "name": "newOwnerAddr",
          "type": "address"
        }
      ],
      "name": "GuardianSupportRecovery",
      "type": "event"
    },
    {
      "anonymous": false,
      "inputs": [
        {
          "indexed": false,
          "internalType": "address",
          "name": "contractAddress",
          "type": "address"
        },
        {
          "indexed": false,
          "internalType": "address",
          "name": "initator",
          "type": "address"
        },
        {
          "indexed": false,
          "internalType": "uint256",
          "name": "currentRecoveryRound",
          "type": "uint256"
        },
        {
          "indexed": false,
          "internalType": "uint256",
          "name": "threshold",
          "type": "uint256"
        }
      ],
      "name": "RecoveryStart",
      "type": "event"
    },
    {
      "anonymous": false,
      "inputs": [
        {
          "indexed": false,
          "internalType": "address",
          "name": "contractAddress",
          "type": "address"
        },
        {
          "indexed": false,
          "internalType": "address",
          "name": "oldOwnerAddr",
          "type": "address"
        },
        {
          "indexed": false,
          "internalType": "address",
          "name": "newOwnerAddr",
          "type": "address"
        }
      ],
      "name": "RecoverySuccess",
      "type": "event"
    },
    {
      "anonymous": false,
      "inputs": [
        {
          "indexed": false,
          "internalType": "address",
          "name": "contractAddress",
          "type": "address"
        },
        {
          "indexed": false,
          "internalType": "address",
          "name": "removeOldGuardian",
          "type": "address"
        },
        {
          "indexed": false,
          "internalType": "address",
          "name": "AddNewGuardian",
          "type": "address"
        }
      ],
      "name": "RemoveGuardianSuccess",
      "type": "event"
    },
    {
      "anonymous": false,
      "inputs": [
        {
          "indexed": false,
          "internalType": "address",
          "name": "contractAddress",
          "type": "address"
        },
        {
          "indexed": false,
          "internalType": "uint256",
          "name": "totalether",
          "type": "uint256"
        },
        {
          "indexed": false,
          "internalType": "uint256",
          "name": "withdraw",
          "type": "uint256"
        }
      ],
      "name": "WithdrawMoneySuccess",
      "type": "event"
    },
    {
      "inputs": [],
      "name": "currRecoveryRound",
      "outputs": [
        {
          "internalType": "uint256",
          "name": "",
          "type": "uint256"
        }
      ],
      "stateMutability": "view",
      "type": "function",
      "constant": true
    },
    {
      "inputs": [
        {
          "internalType": "address",
          "name": "",
          "type": "address"
        }
      ],
      "name": "guardianRemovalPeriod",
      "outputs": [
        {
          "internalType": "uint256",
          "name": "",
          "type": "uint256"
        }
      ],
      "stateMutability": "view",
      "type": "function",
      "constant": true
    },
    {
      "inputs": [
        {
          "internalType": "address",
          "name": "",
          "type": "address"
        }
      ],
      "name": "guardianToRecovery",
      "outputs": [
        {
          "internalType": "uint256",
          "name": "recoveryRound",
          "type": "uint256"
        },
        {
          "internalType": "address",
          "name": "newOwnerAddr",
          "type": "address"
        },
        {
          "internalType": "bool",
          "name": "used",
          "type": "bool"
        }
      ],
      "stateMutability": "view",
      "type": "function",
      "constant": true
    },
    {
      "inputs": [],
      "name": "isRecovering",
      "outputs": [
        {
          "internalType": "bool",
          "name": "",
          "type": "bool"
        }
      ],
      "stateMutability": "view",
      "type": "function",
      "constant": true
    },
    {
      "inputs": [],
      "name": "owner",
      "outputs": [
        {
          "internalType": "address",
          "name": "",
          "type": "address"
        }
      ],
      "stateMutability": "view",
      "type": "function",
      "constant": true
    },
    {
      "inputs": [],
      "name": "threshold",
      "outputs": [
        {
          "internalType": "uint256",
          "name": "",
          "type": "uint256"
        }
      ],
      "stateMutability": "view",
      "type": "function",
      "constant": true
    },
    {
      "inputs": [],
      "name": "totalDepositAmount",
      "outputs": [
        {
          "internalType": "uint256",
          "name": "",
          "type": "uint256"
        }
      ],
      "stateMutability": "view",
      "type": "function",
      "constant": true
    },
    {
      "inputs": [],
      "name": "depositMoney",
      "outputs": [],
      "stateMutability": "payable",
      "type": "function",
      "payable": true
    },
    {
      "inputs": [
        {
          "internalType": "uint256",
          "name": "withdrawValue",
          "type": "uint256"
        }
      ],
      "name": "withdrawMoney",
      "outputs": [],
      "stateMutability": "payable",
      "type": "function",
      "payable": true
    },
    {
      "inputs": [],
      "name": "getBalance",
      "outputs": [
        {
          "internalType": "uint256",
          "name": "balance",
          "type": "uint256"
        }
      ],
      "stateMutability": "view",
      "type": "function",
      "constant": true
    },
    {
      "inputs": [
        {
          "internalType": "address",
          "name": "removingGuardian",
          "type": "address"
        }
      ],
      "name": "removeGuardian",
      "outputs": [],
      "stateMutability": "nonpayable",
      "type": "function"
    },
    {
      "inputs": [
        {
          "internalType": "address",
          "name": "removingGuardian",
          "type": "address"
        },
        {
          "internalType": "address",
          "name": "newGuardian",
          "type": "address"
        }
      ],
      "name": "executeGuardianRemoval",
      "outputs": [],
      "stateMutability": "nonpayable",
      "type": "function"
    },
    {
      "inputs": [
        {
          "internalType": "address",
          "name": "removingGuardian",
          "type": "address"
        }
      ],
      "name": "cancelGuardianRemoval",
      "outputs": [],
      "stateMutability": "nonpayable",
      "type": "function"
    },
    {
      "inputs": [
        {
          "internalType": "address",
          "name": "newGuardian",
          "type": "address"
        }
      ],
      "name": "transferGuardian",
      "outputs": [],
      "stateMutability": "nonpayable",
      "type": "function"
    },
    {
      "inputs": [
        {
          "internalType": "address",
          "name": "_newOwnerAddr",
          "type": "address"
        }
      ],
      "name": "initiateRecovery",
      "outputs": [],
      "stateMutability": "nonpayable",
      "type": "function"
    },
    {
      "inputs": [
        {
          "internalType": "address",
          "name": "_newOwnerAddr",
          "type": "address"
        }
      ],
      "name": "supportRecovery",
      "outputs": [],
      "stateMutability": "nonpayable",
      "type": "function"
    },
    {
      "inputs": [],
      "name": "cancelRecovery",
      "outputs": [],
      "stateMutability": "nonpayable",
      "type": "function"
    },
    {
      "inputs": [
        {
          "internalType": "address",
          "name": "newOwner",
          "type": "address"
        },
        {
          "internalType": "address[]",
          "name": "guardianList",
          "type": "address[]"
        }
      ],
      "name": "executeRecovery",
      "outputs": [],
      "stateMutability": "nonpayable",
      "type": "function"
    },
    {
      "inputs": [
        {
          "internalType": "address",
          "name": "guardian",
          "type": "address"
        }
      ],
      "name": "getIsGuardianOrNot",
      "outputs": [
        {
          "internalType": "bool",
          "name": "isGuard",
          "type": "bool"
        }
      ],
      "stateMutability": "view",
      "type": "function",
      "constant": true
    }
  ],
  "bytecode": "0x60806040523480156200001157600080fd5b5060405162002a9938038062002a99833981810160405281019062000037919062000268565b336000806101000a81548173ffffffffffffffffffffffffffffffffffffffff021916908373ffffffffffffffffffffffffffffffffffffffff160217905550816002819055508181511015620000c5576040517f08c379a0000000000000000000000000000000000000000000000000000000008152600401620000bc906200032a565b60405180910390fd5b60005b8151811015620001875760008282815181106200010e577f4e487b7100000000000000000000000000000000000000000000000000000000600052603260045260246000fd5b602002602001015190506001600560008373ffffffffffffffffffffffffffffffffffffffff1673ffffffffffffffffffffffffffffffffffffffff16815260200190815260200160002060006101000a81548160ff0219169083151502179055505080806200017e90620003fe565b915050620000c8565b5060006001819055505050620004de565b6000620001af620001a98462000380565b6200034c565b90508083825260208201905082856020860282011115620001cf57600080fd5b60005b85811015620002035781620001e888826200020d565b845260208401935060208301925050600181019050620001d2565b5050509392505050565b6000815190506200021e81620004aa565b92915050565b600082601f8301126200023657600080fd5b81516200024884826020860162000198565b91505092915050565b6000815190506200026281620004c4565b92915050565b600080604083850312156200027c57600080fd5b60006200028c8582860162000251565b925050602083015167ffffffffffffffff811115620002aa57600080fd5b620002b88582860162000224565b9150509250929050565b6000620002d1603883620003af565b91507f496e697469616c20677561726469616e20616d6f756e742063616e2774206c6560008301527f7373207468616e207468726573686f6c64206e756d62657200000000000000006020830152604082019050919050565b600060208201905081810360008301526200034581620002c2565b9050919050565b6000604051905081810181811067ffffffffffffffff821117156200037657620003756200047b565b5b8060405250919050565b600067ffffffffffffffff8211156200039e576200039d6200047b565b5b602082029050602081019050919050565b600082825260208201905092915050565b6000620003cd82620003d4565b9050919050565b600073ffffffffffffffffffffffffffffffffffffffff82169050919050565b6000819050919050565b60006200040b82620003f4565b91507fffffffffffffffffffffffffffffffffffffffffffffffffffffffffffffffff8214156200044157620004406200044c565b5b600182019050919050565b7f4e487b7100000000000000000000000000000000000000000000000000000000600052601160045260246000fd5b7f4e487b7100000000000000000000000000000000000000000000000000000000600052604160045260246000fd5b620004b581620003c0565b8114620004c157600080fd5b50565b620004cf81620003f4565b8114620004db57600080fd5b50565b6125ab80620004ee6000396000f3fe6080604052600436106101145760003560e01c80635fc489a7116100a0578063ace7c99311610064578063ace7c9931461034b578063c5408d5014610376578063d5ce9aad146103a1578063ddce2b3f146103ca578063fba0f5651461040757610114565b80635fc489a714610264578063714041561461028d5780638da5cb5b146102b657806391ac2788146102e1578063a079e2a11461030c57610114565b80631db57b17116100e75780631db57b171461018e57806342cde4e8146101cb57806350f8fcf4146101f6578063548769211461021f57806357e685bc1461023b57610114565b8063091954cd146101195780630ba234d61461014257806312065fe01461015957806316c05aa214610184575b600080fd5b34801561012557600080fd5b50610140600480360381019061013b9190611b6f565b610430565b005b34801561014e57600080fd5b50610157610648565b005b34801561016557600080fd5b5061016e610749565b60405161017b919061239a565b60405180910390f35b61018c610753565b005b34801561019a57600080fd5b506101b560048036038101906101b09190611b6f565b610889565b6040516101c291906121df565b60405180910390f35b3480156101d757600080fd5b506101e06108df565b6040516101ed919061239a565b60405180910390f35b34801561020257600080fd5b5061021d60048036038101906102189190611b98565b6108e5565b005b61023960048036038101906102349190611c2c565b610c44565b005b34801561024757600080fd5b50610262600480360381019061025d9190611b6f565b610e27565b005b34801561027057600080fd5b5061028b60048036038101906102869190611bd4565b611077565b005b34801561029957600080fd5b506102b460048036038101906102af9190611b6f565b61163f565b005b3480156102c257600080fd5b506102cb611728565b6040516102d891906120cc565b60405180910390f35b3480156102ed57600080fd5b506102f661174c565b60405161030391906121df565b60405180910390f35b34801561031857600080fd5b50610333600480360381019061032e9190611b6f565b61175f565b604051610342939291906123b5565b60405180910390f35b34801561035757600080fd5b506103606117b6565b60405161036d919061239a565b60405180910390f35b34801561038257600080fd5b5061038b6117bc565b604051610398919061239a565b60405180910390f35b3480156103ad57600080fd5b506103c860048036038101906103c39190611b6f565b6117c2565b005b3480156103d657600080fd5b506103f160048036038101906103ec9190611b6f565b611a0d565b6040516103fe919061239a565b60405180910390f35b34801561041357600080fd5b5061042e60048036038101906104299190611b6f565b611a25565b005b60011515600560003373ffffffffffffffffffffffffffffffffffffffff1673ffffffffffffffffffffffffffffffffffffffff16815260200190815260200160002060009054906101000a900460ff161515146104c3576040517f08c379a00000000000000000000000000000000000000000000000000000000081526004016104ba9061223a565b60405180910390fd5b600360009054906101000a900460ff1615610513576040517f08c379a000000000000000000000000000000000000000000000000000000000815260040161050a9061221a565b60405180910390fd5b6000600660003373ffffffffffffffffffffffffffffffffffffffff1673ffffffffffffffffffffffffffffffffffffffff1681526020019081526020016000205414610595576040517f08c379a000000000000000000000000000000000000000000000000000000000815260040161058c906121fa565b60405180910390fd5b6001600560008373ffffffffffffffffffffffffffffffffffffffff1673ffffffffffffffffffffffffffffffffffffffff16815260200190815260200160002060006101000a81548160ff0219169083151502179055506000600560003373ffffffffffffffffffffffffffffffffffffffff1673ffffffffffffffffffffffffffffffffffffffff16815260200190815260200160002060006101000a81548160ff02191690831515021790555050565b60008054906101000a900473ffffffffffffffffffffffffffffffffffffffff1673ffffffffffffffffffffffffffffffffffffffff163373ffffffffffffffffffffffffffffffffffffffff16146106d6576040517f08c379a00000000000000000000000000000000000000000000000000000000081526004016106cd9061237a565b60405180910390fd5b60011515600360009054906101000a900460ff1615151461072c576040517f08c379a00000000000000000000000000000000000000000000000000000000081526004016107239061235a565b60405180910390fd5b6000600360006101000a81548160ff021916908315150217905550565b6000600154905090565b60008054906101000a900473ffffffffffffffffffffffffffffffffffffffff1673ffffffffffffffffffffffffffffffffffffffff163373ffffffffffffffffffffffffffffffffffffffff16146107e1576040517f08c379a00000000000000000000000000000000000000000000000000000000081526004016107d89061237a565b60405180910390fd5b600360009054906101000a900460ff1615610831576040517f08c379a00000000000000000000000000000000000000000000000000000000081526004016108289061227a565b60405180910390fd5b346001600082825461084391906123fd565b925050819055507fa8e5edac0de82b638f0015ef71635fd58f7ef2ad755d5872c28c92b98f2b76fa306001543460405161087f939291906121a8565b60405180910390a1565b6000600560008373ffffffffffffffffffffffffffffffffffffffff1673ffffffffffffffffffffffffffffffffffffffff16815260200190815260200160002060009054906101000a900460ff169050919050565b60025481565b60008054906101000a900473ffffffffffffffffffffffffffffffffffffffff1673ffffffffffffffffffffffffffffffffffffffff163373ffffffffffffffffffffffffffffffffffffffff1614610973576040517f08c379a000000000000000000000000000000000000000000000000000000000815260040161096a9061237a565b60405180910390fd5b6000600660008473ffffffffffffffffffffffffffffffffffffffff1673ffffffffffffffffffffffffffffffffffffffff1681526020019081526020016000205414156109f6576040517f08c379a00000000000000000000000000000000000000000000000000000000081526004016109ed906122da565b60405180910390fd5b6000429050600660008473ffffffffffffffffffffffffffffffffffffffff1673ffffffffffffffffffffffffffffffffffffffff168152602001908152602001600020548111610a7c576040517f08c379a0000000000000000000000000000000000000000000000000000000008152600401610a739061233a565b60405180910390fd5b60001515600560008473ffffffffffffffffffffffffffffffffffffffff1673ffffffffffffffffffffffffffffffffffffffff16815260200190815260200160002060009054906101000a900460ff16151514610b0f576040517f08c379a0000000000000000000000000000000000000000000000000000000008152600401610b069061231a565b60405180910390fd5b6000600660008573ffffffffffffffffffffffffffffffffffffffff1673ffffffffffffffffffffffffffffffffffffffff168152602001908152602001600020819055506000600560008573ffffffffffffffffffffffffffffffffffffffff1673ffffffffffffffffffffffffffffffffffffffff16815260200190815260200160002060006101000a81548160ff0219169083151502179055506001600560008473ffffffffffffffffffffffffffffffffffffffff1673ffffffffffffffffffffffffffffffffffffffff16815260200190815260200160002060006101000a81548160ff0219169083151502179055507ffd015379944f1fa7395803b791eb239f99b441be26e0ef3aca28decb16bf1903308484604051610c37939291906120e7565b60405180910390a1505050565b60008054906101000a900473ffffffffffffffffffffffffffffffffffffffff1673ffffffffffffffffffffffffffffffffffffffff163373ffffffffffffffffffffffffffffffffffffffff1614610cd2576040517f08c379a0000000000000000000000000000000000000000000000000000000008152600401610cc99061237a565b60405180910390fd5b600360009054906101000a900460ff1615610d22576040517f08c379a0000000000000000000000000000000000000000000000000000000008152600401610d199061227a565b60405180910390fd5b806001541015610d67576040517f08c379a0000000000000000000000000000000000000000000000000000000008152600401610d5e906122fa565b60405180910390fd5b8060016000828254610d799190612453565b9250508190555060008054906101000a900473ffffffffffffffffffffffffffffffffffffffff1673ffffffffffffffffffffffffffffffffffffffff166108fc829081150290604051600060405180830381858888f19350505050158015610de6573d6000803e3d6000fd5b507ffc683a11a9b191bdfab4d71974db1d5e8d1323e8ae5606713e05bfe2ff30cf1d3060015483604051610e1c939291906121a8565b60405180910390a150565b60011515600560003373ffffffffffffffffffffffffffffffffffffffff1673ffffffffffffffffffffffffffffffffffffffff16815260200190815260200160002060009054906101000a900460ff16151514610eba576040517f08c379a0000000000000000000000000000000000000000000000000000000008152600401610eb19061223a565b60405180910390fd5b60011515600360009054906101000a900460ff16151514610f10576040517f08c379a0000000000000000000000000000000000000000000000000000000008152600401610f079061235a565b60405180910390fd5b600454600760003373ffffffffffffffffffffffffffffffffffffffff1673ffffffffffffffffffffffffffffffffffffffff1681526020019081526020016000206000018190555080600760003373ffffffffffffffffffffffffffffffffffffffff1673ffffffffffffffffffffffffffffffffffffffff16815260200190815260200160002060010160006101000a81548173ffffffffffffffffffffffffffffffffffffffff021916908373ffffffffffffffffffffffffffffffffffffffff1602179055506000600760003373ffffffffffffffffffffffffffffffffffffffff1673ffffffffffffffffffffffffffffffffffffffff16815260200190815260200160002060010160146101000a81548160ff0219169083151502179055507f1e721b5b7ee2072a1f0ed5cc812719ce9be4df69815953b6da782c3c410ad12430600454338460405161106c9493929190612163565b60405180910390a150565b60011515600560003373ffffffffffffffffffffffffffffffffffffffff1673ffffffffffffffffffffffffffffffffffffffff16815260200190815260200160002060009054906101000a900460ff1615151461110a576040517f08c379a00000000000000000000000000000000000000000000000000000000081526004016111019061223a565b60405180910390fd5b60011515600360009054906101000a900460ff16151514611160576040517f08c379a00000000000000000000000000000000000000000000000000000000081526004016111579061235a565b60405180910390fd5b6002548282905010156111a8576040517f08c379a000000000000000000000000000000000000000000000000000000000815260040161119f9061225a565b60405180910390fd5b60008060009054906101000a900473ffffffffffffffffffffffffffffffffffffffff1690506000806000805b8686905081101561148657600087878381811061121b577f4e487b7100000000000000000000000000000000000000000000000000000000600052603260045260246000fd5b90506020020160208101906112309190611b6f565b905060011515600560008373ffffffffffffffffffffffffffffffffffffffff1673ffffffffffffffffffffffffffffffffffffffff16815260200190815260200160002060009054906101000a900460ff161515141561146557600760008273ffffffffffffffffffffffffffffffffffffffff1673ffffffffffffffffffffffffffffffffffffffff16815260200190815260200160002060010160149054906101000a900460ff1661145357600454600760008373ffffffffffffffffffffffffffffffffffffffff1673ffffffffffffffffffffffffffffffffffffffff168152602001908152602001600020600001541415611441578873ffffffffffffffffffffffffffffffffffffffff16600760008373ffffffffffffffffffffffffffffffffffffffff1673ffffffffffffffffffffffffffffffffffffffff16815260200190815260200160002060010160009054906101000a900473ffffffffffffffffffffffffffffffffffffffff1673ffffffffffffffffffffffffffffffffffffffff16141561142f576001600760008373ffffffffffffffffffffffffffffffffffffffff1673ffffffffffffffffffffffffffffffffffffffff16815260200190815260200160002060010160146101000a81548160ff0219169083151502179055508480611427906124cf565b95505061143c565b8192506001935050611486565b61144e565b8192506001935050611486565b611460565b8192506001935050611486565b611472565b8192506001935050611486565b50808061147e906124cf565b9150506111d5565b50811561155b5760005b818110156115595760008787838181106114d3577f4e487b7100000000000000000000000000000000000000000000000000000000600052603260045260246000fd5b90506020020160208101906114e89190611b6f565b90506000600760008373ffffffffffffffffffffffffffffffffffffffff1673ffffffffffffffffffffffffffffffffffffffff16815260200190815260200160002060010160146101000a81548160ff021916908315150217905550508080611551906124cf565b915050611490565b505b6002548310156115a0576040517f08c379a0000000000000000000000000000000000000000000000000000000008152600401611597906122ba565b60405180910390fd5b6000600360006101000a81548160ff021916908315150217905550866000806101000a81548173ffffffffffffffffffffffffffffffffffffffff021916908373ffffffffffffffffffffffffffffffffffffffff1602179055507ff0c9129a94f30f1caaceb63e44b9811d0a3edf1d6c23757f346093af5553fed030858960405161162e939291906120e7565b60405180910390a150505050505050565b60008054906101000a900473ffffffffffffffffffffffffffffffffffffffff1673ffffffffffffffffffffffffffffffffffffffff163373ffffffffffffffffffffffffffffffffffffffff16146116cd576040517f08c379a00000000000000000000000000000000000000000000000000000000081526004016116c49061237a565b60405180910390fd5b600042905062015180816116e191906123fd565b600660008473ffffffffffffffffffffffffffffffffffffffff1673ffffffffffffffffffffffffffffffffffffffff168152602001908152602001600020819055505050565b60008054906101000a900473ffffffffffffffffffffffffffffffffffffffff1681565b600360009054906101000a900460ff1681565b60076020528060005260406000206000915090508060000154908060010160009054906101000a900473ffffffffffffffffffffffffffffffffffffffff16908060010160149054906101000a900460ff16905083565b60045481565b60015481565b60011515600560003373ffffffffffffffffffffffffffffffffffffffff1673ffffffffffffffffffffffffffffffffffffffff16815260200190815260200160002060009054906101000a900460ff16151514611855576040517f08c379a000000000000000000000000000000000000000000000000000000000815260040161184c9061223a565b60405180910390fd5b60001515600360009054906101000a900460ff161515146118ab576040517f08c379a00000000000000000000000000000000000000000000000000000000081526004016118a29061229a565b60405180910390fd5b6001600460008282546118be91906123fd565b925050819055506001600360006101000a81548160ff021916908315150217905550604051806060016040528060045481526020018273ffffffffffffffffffffffffffffffffffffffff16815260200160001515815250600760003373ffffffffffffffffffffffffffffffffffffffff1673ffffffffffffffffffffffffffffffffffffffff1681526020019081526020016000206000820151816000015560208201518160010160006101000a81548173ffffffffffffffffffffffffffffffffffffffff021916908373ffffffffffffffffffffffffffffffffffffffff16021790555060408201518160010160146101000a81548160ff0219169083151502179055509050507fc46d98493f65edb910ac463b3a1eaa7e62cb74e622eeec4071260050ac4305cb3033600454600254604051611a02949392919061211e565b60405180910390a150565b60066020528060005260406000206000915090505481565b60008054906101000a900473ffffffffffffffffffffffffffffffffffffffff1673ffffffffffffffffffffffffffffffffffffffff163373ffffffffffffffffffffffffffffffffffffffff1614611ab3576040517f08c379a0000000000000000000000000000000000000000000000000000000008152600401611aaa9061237a565b60405180910390fd5b6000600660008373ffffffffffffffffffffffffffffffffffffffff1673ffffffffffffffffffffffffffffffffffffffff1681526020019081526020016000208190555050565b600081359050611b0a81612547565b92915050565b60008083601f840112611b2257600080fd5b8235905067ffffffffffffffff811115611b3b57600080fd5b602083019150836020820283011115611b5357600080fd5b9250929050565b600081359050611b698161255e565b92915050565b600060208284031215611b8157600080fd5b6000611b8f84828501611afb565b91505092915050565b60008060408385031215611bab57600080fd5b6000611bb985828601611afb565b9250506020611bca85828601611afb565b9150509250929050565b600080600060408486031215611be957600080fd5b6000611bf786828701611afb565b935050602084013567ffffffffffffffff811115611c1457600080fd5b611c2086828701611b10565b92509250509250925092565b600060208284031215611c3e57600080fd5b6000611c4c84828501611b5a565b91505092915050565b611c5e81612487565b82525050565b611c6d81612499565b82525050565b6000611c80601d836123ec565b91507f477561726469616e20697320696e2072656d6f76616c20706572696f640000006000830152602082019050919050565b6000611cc06030836123ec565b91507f43616e6e6f74207472616e7366657220677561726469616e20647572696e672060008301527f7265636f766572792070726f63657373000000000000000000000000000000006020830152604082019050919050565b6000611d266026836123ec565b91507f4f6e6c7920677561726469616e732063616e20706572666f726d20746869732060008301527f616374696f6e00000000000000000000000000000000000000000000000000006020830152604082019050919050565b6000611d8c6016836123ec565b91507f496e73756666696369656e7420677561726469616e73000000000000000000006000830152602082019050919050565b6000611dcc602f836123ec565b91507f43616e6e6f742073656e64207472616e73616374696f6e20647572696e67207260008301527f65636f766572792070726f6365737300000000000000000000000000000000006020830152604082019050919050565b6000611e32601f836123ec565b91507f416c726561647920696e20746865207265636f766572792070726f63657373006000830152602082019050919050565b6000611e726014836123ec565b91507f496e73756666696369656e7420737570706f72740000000000000000000000006000830152602082019050919050565b6000611eb2601e836123ec565b91507f477561726469616e2072656d6f76616c206e6f74207363686564756c656400006000830152602082019050919050565b6000611ef26032836123ec565b91507f43616e6e6f74206e6f74207769746864726177206d6f7265207468616e20746f60008301527f74616c206465706f73697420616d6f756e7400000000000000000000000000006020830152604082019050919050565b6000611f58602d836123ec565b91507f4e657720677561726469616e2077617320616c7265616479206265656e20677560008301527f61726469616e206265666f7265000000000000000000000000000000000000006020830152604082019050919050565b6000611fbe6022836123ec565b91507f477561726469616e2072656d6f76616c20706572696f64206e6f74207061737360008301527f65640000000000000000000000000000000000000000000000000000000000006020830152604082019050919050565b60006120246020836123ec565b91507f4f6e6c7920647572696e6720746865207265636f766572792070726f636573736000830152602082019050919050565b60006120646022836123ec565b91507f4f6e6c79206f776e65722063616e20706572666f726d2074686973206163746960008301527f6f6e0000000000000000000000000000000000000000000000000000000000006020830152604082019050919050565b6120c6816124c5565b82525050565b60006020820190506120e16000830184611c55565b92915050565b60006060820190506120fc6000830186611c55565b6121096020830185611c55565b6121166040830184611c55565b949350505050565b60006080820190506121336000830187611c55565b6121406020830186611c55565b61214d60408301856120bd565b61215a60608301846120bd565b95945050505050565b60006080820190506121786000830187611c55565b61218560208301866120bd565b6121926040830185611c55565b61219f6060830184611c55565b95945050505050565b60006060820190506121bd6000830186611c55565b6121ca60208301856120bd565b6121d760408301846120bd565b949350505050565b60006020820190506121f46000830184611c64565b92915050565b6000602082019050818103600083015261221381611c73565b9050919050565b6000602082019050818103600083015261223381611cb3565b9050919050565b6000602082019050818103600083015261225381611d19565b9050919050565b6000602082019050818103600083015261227381611d7f565b9050919050565b6000602082019050818103600083015261229381611dbf565b9050919050565b600060208201905081810360008301526122b381611e25565b9050919050565b600060208201905081810360008301526122d381611e65565b9050919050565b600060208201905081810360008301526122f381611ea5565b9050919050565b6000602082019050818103600083015261231381611ee5565b9050919050565b6000602082019050818103600083015261233381611f4b565b9050919050565b6000602082019050818103600083015261235381611fb1565b9050919050565b6000602082019050818103600083015261237381612017565b9050919050565b6000602082019050818103600083015261239381612057565b9050919050565b60006020820190506123af60008301846120bd565b92915050565b60006060820190506123ca60008301866120bd565b6123d76020830185611c55565b6123e46040830184611c64565b949350505050565b600082825260208201905092915050565b6000612408826124c5565b9150612413836124c5565b9250827fffffffffffffffffffffffffffffffffffffffffffffffffffffffffffffffff0382111561244857612447612518565b5b828201905092915050565b600061245e826124c5565b9150612469836124c5565b92508282101561247c5761247b612518565b5b828203905092915050565b6000612492826124a5565b9050919050565b60008115159050919050565b600073ffffffffffffffffffffffffffffffffffffffff82169050919050565b6000819050919050565b60006124da826124c5565b91507fffffffffffffffffffffffffffffffffffffffffffffffffffffffffffffffff82141561250d5761250c612518565b5b600182019050919050565b7f4e487b7100000000000000000000000000000000000000000000000000000000600052601160045260246000fd5b61255081612487565b811461255b57600080fd5b50565b612567816124c5565b811461257257600080fd5b5056fea2646970667358221220814f55ef0f9d0fc64aff065ae412fee9f450de4be079522998ca2f9273c372e264736f6c63430008000033",
  "immutableReferences": {},
  "source": "// SPDX-License-Identifier: MIT\npragma solidity ^0.8.0;\n\ncontract SocialRecoveryWallet{\n    address public owner; // Wallet \n    uint public totalDepositAmount ;\n    uint public threshold; // guardian \n    bool public isRecovering; // \n    uint public currRecoveryRound; // \n    /*\n     guardian  value  false\n     guardian  value  true\n    */\n    struct RecoverInfo {\n        uint recoveryRound; // \n        address newOwnerAddr; //  Owner \n        bool used; //  Guardian  Recover  true\n                   //  executeRecovery  Recovery  true\n                   // \n    }\n    mapping(address => bool) isGuardian; // Wallet \n    mapping(address => uint256) public guardianRemovalPeriod; // \n    mapping(address => RecoverInfo) public guardianToRecovery; // \n    \n    modifier onlyOwner() { // sender  owner address ( owner )\n        require(msg.sender == owner, \"Only owner can perform this action\");\n        _;\n    }\n    modifier onlyGuardian() { // sender  guardian address  ( guardian )\n        require(isGuardian[msg.sender] == true, \"Only guardians can perform this action\");\n        _;\n    }\n    modifier onlyInRecovery() { //\n        require(isRecovering == true, \"Only during the recovery process\");\n        _;\n    }\n    event RecoveryStart(address contractAddress, address initator,  uint currentRecoveryRound, uint threshold);\n    event GuardianSupportRecovery(address contractAddress, uint currentRecoveryRound, address guardianAddr, address newOwnerAddr);\n    event RecoverySuccess(address contractAddress, address oldOwnerAddr, address newOwnerAddr);\n    event RemoveGuardianSuccess(address contractAddress, address removeOldGuardian, address AddNewGuardian);\n    event DepositMoneySuccess(address contractAddress, uint totalether, uint deposit);\n    event WithdrawMoneySuccess(address contractAddress, uint totalether, uint withdraw);\n\n    constructor(uint _threshold, address[] memory _initialGuardians) {\n        owner = msg.sender; // Wallet \n        threshold = _threshold; //  Guardian  owner \n        require(_initialGuardians.length >= _threshold,\"Initial guardian amount can't less than threshold number\");\n        //  guardian\n        for (uint i = 0; i < _initialGuardians.length; i++) {\n            address guardian = _initialGuardians[i];\n            isGuardian[guardian] = true;\n        }\n        totalDepositAmount = 0;\n    }\n    function depositMoney() external payable onlyOwner{\n        require(!isRecovering, \"Cannot send transaction during recovery process\");\n        totalDepositAmount += msg.value;\n        emit DepositMoneySuccess(address(this), totalDepositAmount, msg.value);\n    }\n    function withdrawMoney(uint withdrawValue) external payable onlyOwner{\n        require(!isRecovering, \"Cannot send transaction during recovery process\");\n        require(totalDepositAmount>=withdrawValue, \"Cannot not withdraw more than total deposit amount\");\n        totalDepositAmount -= withdrawValue;\n        payable(owner).transfer(withdrawValue);\n        emit WithdrawMoneySuccess(address(this), totalDepositAmount, withdrawValue);\n    }\n    function getBalance() external view returns(uint balance){\n        return(totalDepositAmount);\n    }\n    function removeGuardian(address removingGuardian) external onlyOwner {\n        //  Removal Period  timestamp + 1 Days\n        uint256 currentTimestamp = block.timestamp;\n        guardianRemovalPeriod[removingGuardian] = currentTimestamp + 86400;\n    }\n    function executeGuardianRemoval(address removingGuardian, address newGuardian) external onlyOwner {\n        //  oldGuardian \n        require(guardianRemovalPeriod[removingGuardian] != 0, \"Guardian removal not scheduled\");\n        //  Removal Period \n        uint256 currentTimestamp = block.timestamp;\n        require(currentTimestamp > guardianRemovalPeriod[removingGuardian], \"Guardian removal period not passed\");\n        //  new Guardian  \n        require(isGuardian[newGuardian]==false, \"New guardian was already been guardian before\");\n        //  Removal Period Timestamp  0 (means not in Removal Period)\n        guardianRemovalPeriod[removingGuardian] = 0;\n        //  Guardian Data Structures\n        isGuardian[removingGuardian] = false;\n        isGuardian[newGuardian] = true;\n        emit RemoveGuardianSuccess(address(this), removingGuardian, newGuardian);\n    }\n    function cancelGuardianRemoval(address removingGuardian) onlyOwner external {\n        //  Removal Period Timestamp  0 (means not in Removal Period)\n        guardianRemovalPeriod[removingGuardian] = 0;\n    }\n    function transferGuardian(address newGuardian) external onlyGuardian{\n       //  Recovery Period\n       require(!isRecovering, \"Cannot transfer guardian during recovery process\");\n       //  msg.sender Guardian  Removal Period\n       require(guardianRemovalPeriod[msg.sender] == 0, \"Guardian is in removal period\");\n       //  Guardian Data Structures\n       isGuardian[newGuardian] = true;\n       isGuardian[msg.sender] = false;\n    }\n    // Guardian  Recovery\n    function initiateRecovery(address _newOwnerAddr) onlyGuardian external {\n       //  Recoveringcheck isRecovering == false\n       require(isRecovering == false,\"Already in the recovery process\");\n       // \n       currRecoveryRound += 1;\n       // \n       isRecovering = true;\n       //  guardianToRecovery[msg.sender] \n       guardianToRecovery[msg.sender] = RecoverInfo(currRecoveryRound, _newOwnerAddr, false);\n       emit RecoveryStart(address(this), msg.sender,  currRecoveryRound, threshold);\n    }\n    // Guardian  Recovery \n    function supportRecovery(address _newOwnerAddr) onlyGuardian onlyInRecovery external {\n       //  guardianToRecovery[msg.sender] \n       guardianToRecovery[msg.sender].recoveryRound = currRecoveryRound;\n       guardianToRecovery[msg.sender].newOwnerAddr = _newOwnerAddr;\n       guardianToRecovery[msg.sender].used = false;\n       emit GuardianSupportRecovery(address(this), currRecoveryRound, msg.sender, _newOwnerAddr);\n    }\n    // Owner  Recovery \n    function cancelRecovery() onlyOwner onlyInRecovery external {\n        // \n        isRecovering = false;\n    }\n    //  Recovery\n    function executeRecovery(address newOwner, address[] calldata guardianList) onlyGuardian onlyInRecovery external {\n        //  guardianList  threshold\n        require(guardianList.length >= threshold, \"Insufficient guardians\");\n        address oldOwner = owner;\n        uint supportCount = 0;\n        bool somethingWrong = false;\n        uint index = 0;\n        for (uint i = 0; i < guardianList.length; i++) {\n            address guardian = guardianList[i];\n            //  Guardian\n            if(isGuardian[guardian]==true){\n                //  Guardian  used == false\n                if(!guardianToRecovery[guardian].used){\n                    //  Guardian  RecoveryRound == currRecoveryRound\n                    if(guardianToRecovery[guardian].recoveryRound == currRecoveryRound){\n                        //  Guardian  newOwnerAddr == newOwner\n                        if(guardianToRecovery[guardian].newOwnerAddr == newOwner){\n                            //  Guardian  used = true\n                            guardianToRecovery[guardian].used = true;\n                            supportCount++;\n                        }else{\n                            index = i;\n                            somethingWrong = true;\n                            break;\n                        }\n                    }else{\n                        index = i;\n                        somethingWrong = true;\n                        break;\n                    }\n                }else{\n                    index = i;\n                    somethingWrong = true;\n                    break;\n                }\n            }else{\n                index = i;\n                somethingWrong = true;\n                break;\n            }\n        }\n        if(somethingWrong){\n            for (uint i = 0; i < index; i++) {\n                address guardian = guardianList[i];\n                guardianToRecovery[guardian].used = false;\n            }\n        }\n        require(supportCount >= threshold, \"Insufficient support\");\n        //  Revert Recovery\n        isRecovering = false;\n        //  Owner \n        owner = newOwner;\n        emit RecoverySuccess(address(this), oldOwner, newOwner);\n    }\n    function getIsGuardianOrNot(address guardian) external view returns(bool isGuard){\n        isGuard = isGuardian[guardian];\n        return(isGuard);\n    }\n}\n\n\n// \n/*\n    function executeRecovery(address newOwner, address[] calldata guardianList) onlyGuardian onlyInRecovery external {\n        //  guardianList  threshold\n        require(guardianList.length >= threshold, \"Insufficient guardians\");\n        uint supportCount = 0;\n        for (uint i = 0; i < guardianList.length; i++) {\n            address guardian = guardianList[i];\n            //  Guardian\n            require(isGuardian[guardian], \"Invalid guardian\");\n            //  Guardian  used == false\n            require(!guardianToRecovery[guardian].used, \"Recovery support already used\");\n            //  Guardian  RecoveryRound == currRecoveryRound\n            require(guardianToRecovery[guardian].recoveryRound == currRecoveryRound, \"Invalid recovery round\");\n            //  Guardian  newOwnerAddr == newOwner\n            require(guardianToRecovery[guardian].newOwnerAddr == newOwner, \"Invalid new owner address\");\n            //  Guardian  used = true\n            guardianToRecovery[guardian].used = true;\n            supportCount++;\n        }\n        require(supportCount >= threshold, \"Insufficient support\");\n        //  Revert Recovery\n        isRecovering = false;\n        //  Owner \n        owner = newOwner;\n    }\n*/\n//  guardian  owner \n//   guardians  Support address \n//           addree  threshold - 1  Support\n//           for threshold - 1 \n//           guardian  owner  guardian \n\n// \n//        gas  Guardian  gas \n\n\n\n\n",
  "sourcePath": "/Users/daniel_wang/blockchain/social-recovery-dapp/Social_Recovery/contracts/SocialRecoveryWallet.sol",
  "compiler": {
    "name": "solc",
    "version": "0.8.0+commit.c7dfd78e.Emscripten.clang"
  },
  "schemaVersion": "3.4.15",
  "updatedAt": "2024-04-27T13:36:52.018Z",
  "networkType": "ethereum",
  "devdoc": {
    "kind": "dev",
    "methods": {},
    "version": 1
  },
  "userdoc": {
    "kind": "user",
    "methods": {},
    "version": 1
  }
}