{
  "contractName": "SocialRecoveryWallet",
  "abi": [
    {
      "inputs": [
        {
          "internalType": "uint256",
          "name": "_threshold",
          "type": "uint256"
        },
        {
          "internalType": "address[]",
          "name": "_initialGuardians",
          "type": "address[]"
        }
      ],
      "stateMutability": "nonpayable",
      "type": "constructor"
    },
    {
      "anonymous": false,
      "inputs": [
        {
          "indexed": false,
          "internalType": "address",
          "name": "contractAddress",
          "type": "address"
        },
        {
          "indexed": false,
          "internalType": "uint256",
          "name": "totalether",
          "type": "uint256"
        },
        {
          "indexed": false,
          "internalType": "uint256",
          "name": "deposit",
          "type": "uint256"
        }
      ],
      "name": "DepositMoneySuccess",
      "type": "event"
    },
    {
      "anonymous": false,
      "inputs": [
        {
          "indexed": false,
          "internalType": "address",
          "name": "contractAddress",
          "type": "address"
        },
        {
          "indexed": false,
          "internalType": "uint256",
          "name": "currentRecoveryRound",
          "type": "uint256"
        },
        {
          "indexed": false,
          "internalType": "address",
          "name": "guardianAddr",
          "type": "address"
        },
        {
          "indexed": false,
          "internalType": "address",
          "name": "newOwnerAddr",
          "type": "address"
        }
      ],
      "name": "GuardianSupportRecovery",
      "type": "event"
    },
    {
      "anonymous": false,
      "inputs": [
        {
          "indexed": false,
          "internalType": "address",
          "name": "contractAddress",
          "type": "address"
        },
        {
          "indexed": false,
          "internalType": "address",
          "name": "initator",
          "type": "address"
        },
        {
          "indexed": false,
          "internalType": "uint256",
          "name": "currentRecoveryRound",
          "type": "uint256"
        },
        {
          "indexed": false,
          "internalType": "uint256",
          "name": "threshold",
          "type": "uint256"
        }
      ],
      "name": "RecoveryStart",
      "type": "event"
    },
    {
      "anonymous": false,
      "inputs": [
        {
          "indexed": false,
          "internalType": "address",
          "name": "contractAddress",
          "type": "address"
        },
        {
          "indexed": false,
          "internalType": "address",
          "name": "oldOwnerAddr",
          "type": "address"
        },
        {
          "indexed": false,
          "internalType": "address",
          "name": "newOwnerAddr",
          "type": "address"
        }
      ],
      "name": "RecoverySuccess",
      "type": "event"
    },
    {
      "anonymous": false,
      "inputs": [
        {
          "indexed": false,
          "internalType": "address",
          "name": "contractAddress",
          "type": "address"
        },
        {
          "indexed": false,
          "internalType": "address",
          "name": "removeOldGuardian",
          "type": "address"
        },
        {
          "indexed": false,
          "internalType": "address",
          "name": "AddNewGuardian",
          "type": "address"
        }
      ],
      "name": "RemoveGuardianSuccess",
      "type": "event"
    },
    {
      "anonymous": false,
      "inputs": [
        {
          "indexed": false,
          "internalType": "address",
          "name": "contractAddress",
          "type": "address"
        },
        {
          "indexed": false,
          "internalType": "uint256",
          "name": "totalether",
          "type": "uint256"
        },
        {
          "indexed": false,
          "internalType": "uint256",
          "name": "withdraw",
          "type": "uint256"
        }
      ],
      "name": "WithdrawMoneySuccess",
      "type": "event"
    },
    {
      "inputs": [],
      "name": "currRecoveryRound",
      "outputs": [
        {
          "internalType": "uint256",
          "name": "",
          "type": "uint256"
        }
      ],
      "stateMutability": "view",
      "type": "function",
      "constant": true
    },
    {
      "inputs": [
        {
          "internalType": "address",
          "name": "",
          "type": "address"
        }
      ],
      "name": "guardianRemovalPeriod",
      "outputs": [
        {
          "internalType": "uint256",
          "name": "",
          "type": "uint256"
        }
      ],
      "stateMutability": "view",
      "type": "function",
      "constant": true
    },
    {
      "inputs": [
        {
          "internalType": "address",
          "name": "",
          "type": "address"
        }
      ],
      "name": "guardianToRecovery",
      "outputs": [
        {
          "internalType": "uint256",
          "name": "recoveryRound",
          "type": "uint256"
        },
        {
          "internalType": "address",
          "name": "newOwnerAddr",
          "type": "address"
        },
        {
          "internalType": "bool",
          "name": "used",
          "type": "bool"
        }
      ],
      "stateMutability": "view",
      "type": "function",
      "constant": true
    },
    {
      "inputs": [
        {
          "internalType": "uint256",
          "name": "",
          "type": "uint256"
        }
      ],
      "name": "guardians",
      "outputs": [
        {
          "internalType": "address",
          "name": "",
          "type": "address"
        }
      ],
      "stateMutability": "view",
      "type": "function",
      "constant": true
    },
    {
      "inputs": [],
      "name": "isRecovering",
      "outputs": [
        {
          "internalType": "bool",
          "name": "",
          "type": "bool"
        }
      ],
      "stateMutability": "view",
      "type": "function",
      "constant": true
    },
    {
      "inputs": [],
      "name": "owner",
      "outputs": [
        {
          "internalType": "address",
          "name": "",
          "type": "address"
        }
      ],
      "stateMutability": "view",
      "type": "function",
      "constant": true
    },
    {
      "inputs": [],
      "name": "threshold",
      "outputs": [
        {
          "internalType": "uint256",
          "name": "",
          "type": "uint256"
        }
      ],
      "stateMutability": "view",
      "type": "function",
      "constant": true
    },
    {
      "inputs": [],
      "name": "totalDepositAmount",
      "outputs": [
        {
          "internalType": "uint256",
          "name": "",
          "type": "uint256"
        }
      ],
      "stateMutability": "view",
      "type": "function",
      "constant": true
    },
    {
      "inputs": [],
      "name": "depositMoney",
      "outputs": [],
      "stateMutability": "payable",
      "type": "function",
      "payable": true
    },
    {
      "inputs": [
        {
          "internalType": "uint256",
          "name": "withdrawValue",
          "type": "uint256"
        }
      ],
      "name": "withdrawMoney",
      "outputs": [],
      "stateMutability": "payable",
      "type": "function",
      "payable": true
    },
    {
      "inputs": [],
      "name": "getBalance",
      "outputs": [
        {
          "internalType": "uint256",
          "name": "balance",
          "type": "uint256"
        }
      ],
      "stateMutability": "view",
      "type": "function",
      "constant": true
    },
    {
      "inputs": [],
      "name": "getAllGuardianList",
      "outputs": [
        {
          "internalType": "address[]",
          "name": "",
          "type": "address[]"
        }
      ],
      "stateMutability": "view",
      "type": "function",
      "constant": true
    },
    {
      "inputs": [
        {
          "internalType": "address",
          "name": "guardian",
          "type": "address"
        }
      ],
      "name": "getGuardianRemovalPeriod",
      "outputs": [
        {
          "internalType": "uint256",
          "name": "",
          "type": "uint256"
        }
      ],
      "stateMutability": "view",
      "type": "function",
      "constant": true
    },
    {
      "inputs": [
        {
          "internalType": "address",
          "name": "removingGuardian",
          "type": "address"
        }
      ],
      "name": "removeGuardian",
      "outputs": [],
      "stateMutability": "nonpayable",
      "type": "function"
    },
    {
      "inputs": [
        {
          "internalType": "address",
          "name": "removingGuardian",
          "type": "address"
        },
        {
          "internalType": "address",
          "name": "newGuardian",
          "type": "address"
        }
      ],
      "name": "executeGuardianRemoval",
      "outputs": [],
      "stateMutability": "nonpayable",
      "type": "function"
    },
    {
      "inputs": [
        {
          "internalType": "address",
          "name": "removingGuardian",
          "type": "address"
        }
      ],
      "name": "cancelGuardianRemoval",
      "outputs": [],
      "stateMutability": "nonpayable",
      "type": "function"
    },
    {
      "inputs": [
        {
          "internalType": "address",
          "name": "newGuardian",
          "type": "address"
        }
      ],
      "name": "transferGuardian",
      "outputs": [],
      "stateMutability": "nonpayable",
      "type": "function"
    },
    {
      "inputs": [
        {
          "internalType": "address",
          "name": "_newOwnerAddr",
          "type": "address"
        }
      ],
      "name": "initiateRecovery",
      "outputs": [],
      "stateMutability": "nonpayable",
      "type": "function"
    },
    {
      "inputs": [
        {
          "internalType": "address",
          "name": "_newOwnerAddr",
          "type": "address"
        }
      ],
      "name": "supportRecovery",
      "outputs": [],
      "stateMutability": "nonpayable",
      "type": "function"
    },
    {
      "inputs": [],
      "name": "cancelRecovery",
      "outputs": [],
      "stateMutability": "nonpayable",
      "type": "function"
    },
    {
      "inputs": [
        {
          "internalType": "address",
          "name": "newOwner",
          "type": "address"
        },
        {
          "internalType": "address[]",
          "name": "guardianList",
          "type": "address[]"
        }
      ],
      "name": "executeRecovery",
      "outputs": [],
      "stateMutability": "nonpayable",
      "type": "function"
    },
    {
      "inputs": [
        {
          "internalType": "address",
          "name": "guardian",
          "type": "address"
        }
      ],
      "name": "getIsGuardianOrNot",
      "outputs": [
        {
          "internalType": "bool",
          "name": "isGuard",
          "type": "bool"
        }
      ],
      "stateMutability": "view",
      "type": "function",
      "constant": true
    },
    {
      "inputs": [
        {
          "internalType": "address",
          "name": "guardian",
          "type": "address"
        }
      ],
      "name": "getGuardianSupportNewOwner",
      "outputs": [
        {
          "internalType": "address",
          "name": "newOwner",
          "type": "address"
        }
      ],
      "stateMutability": "view",
      "type": "function",
      "constant": true
    }
  ],
  "bytecode": "0x60806040523480156200001157600080fd5b50604051620033b5380380620033b583398181016040528101906200003791906200030c565b336000806101000a81548173ffffffffffffffffffffffffffffffffffffffff021916908373ffffffffffffffffffffffffffffffffffffffff160217905550816002819055508181511015620000c5576040517f08c379a0000000000000000000000000000000000000000000000000000000008152600401620000bc90620003ce565b60405180910390fd5b60005b81518110156200022b5760008282815181106200010e577f4e487b7100000000000000000000000000000000000000000000000000000000600052603260045260246000fd5b60200260200101519050600583838151811062000154577f4e487b7100000000000000000000000000000000000000000000000000000000600052603260045260246000fd5b60200260200101519080600181540180825580915050600190039060005260206000200160009091909190916101000a81548173ffffffffffffffffffffffffffffffffffffffff021916908373ffffffffffffffffffffffffffffffffffffffff1602179055506001600660008373ffffffffffffffffffffffffffffffffffffffff1673ffffffffffffffffffffffffffffffffffffffff16815260200190815260200160002060006101000a81548160ff0219169083151502179055505080806200022290620004a2565b915050620000c8565b506000600181905550505062000582565b6000620002536200024d8462000424565b620003f0565b905080838252602082019050828560208602820111156200027357600080fd5b60005b85811015620002a757816200028c8882620002b1565b84526020840193506020830192505060018101905062000276565b5050509392505050565b600081519050620002c2816200054e565b92915050565b600082601f830112620002da57600080fd5b8151620002ec8482602086016200023c565b91505092915050565b600081519050620003068162000568565b92915050565b600080604083850312156200032057600080fd5b60006200033085828601620002f5565b925050602083015167ffffffffffffffff8111156200034e57600080fd5b6200035c85828601620002c8565b9150509250929050565b60006200037560388362000453565b91507f496e697469616c20677561726469616e20616d6f756e742063616e2774206c6560008301527f7373207468616e207468726573686f6c64206e756d62657200000000000000006020830152604082019050919050565b60006020820190508181036000830152620003e98162000366565b9050919050565b6000604051905081810181811067ffffffffffffffff821117156200041a57620004196200051f565b5b8060405250919050565b600067ffffffffffffffff8211156200044257620004416200051f565b5b602082029050602081019050919050565b600082825260208201905092915050565b6000620004718262000478565b9050919050565b600073ffffffffffffffffffffffffffffffffffffffff82169050919050565b6000819050919050565b6000620004af8262000498565b91507fffffffffffffffffffffffffffffffffffffffffffffffffffffffffffffffff821415620004e557620004e4620004f0565b5b600182019050919050565b7f4e487b7100000000000000000000000000000000000000000000000000000000600052601160045260246000fd5b7f4e487b7100000000000000000000000000000000000000000000000000000000600052604160045260246000fd5b620005598162000464565b81146200056557600080fd5b50565b620005738162000498565b81146200057f57600080fd5b50565b612e2380620005926000396000f3fe6080604052600436106101405760003560e01c806371404156116100b6578063c5408d501161006f578063c5408d501461040a578063cb205a3314610435578063d5ce9aad14610472578063ddce2b3f1461049b578063f560c734146104d8578063fba0f5651461051557610140565b806371404156146102e45780638da5cb5b1461030d57806391ac278814610338578063a079e2a114610363578063ace7c993146103a2578063c0259928146103cd57610140565b806342cde4e81161010857806342cde4e8146101f757806350f8fcf41461022257806353d994201461024b578063548769211461027657806357e685bc146102925780635fc489a7146102bb57610140565b8063091954cd146101455780630ba234d61461016e57806312065fe01461018557806316c05aa2146101b05780631db57b17146101ba575b600080fd5b34801561015157600080fd5b5061016c60048036038101906101679190612307565b61053e565b005b34801561017a57600080fd5b506101836109db565b005b34801561019157600080fd5b5061019a610adc565b6040516101a79190612bd9565b60405180910390f35b6101b8610ae6565b005b3480156101c657600080fd5b506101e160048036038101906101dc9190612307565b610c1c565b6040516101ee9190612a1e565b60405180910390f35b34801561020357600080fd5b5061020c610c72565b6040516102199190612bd9565b60405180910390f35b34801561022e57600080fd5b5061024960048036038101906102449190612330565b610c78565b005b34801561025757600080fd5b5061026061125c565b60405161026d91906129fc565b60405180910390f35b610290600480360381019061028b91906123c4565b6112ea565b005b34801561029e57600080fd5b506102b960048036038101906102b49190612307565b6114cd565b005b3480156102c757600080fd5b506102e260048036038101906102dd919061236c565b61171d565b005b3480156102f057600080fd5b5061030b60048036038101906103069190612307565b611ce5565b005b34801561031957600080fd5b50610322611dcc565b60405161032f91906128e9565b60405180910390f35b34801561034457600080fd5b5061034d611df0565b60405161035a9190612a1e565b60405180910390f35b34801561036f57600080fd5b5061038a60048036038101906103859190612307565b611e03565b60405161039993929190612bf4565b60405180910390f35b3480156103ae57600080fd5b506103b7611e5a565b6040516103c49190612bd9565b60405180910390f35b3480156103d957600080fd5b506103f460048036038101906103ef9190612307565b611e60565b6040516104019190612bd9565b60405180910390f35b34801561041657600080fd5b5061041f611ea9565b60405161042c9190612bd9565b60405180910390f35b34801561044157600080fd5b5061045c60048036038101906104579190612307565b611eaf565b60405161046991906128e9565b60405180910390f35b34801561047e57600080fd5b5061049960048036038101906104949190612307565b611f1b565b005b3480156104a757600080fd5b506104c260048036038101906104bd9190612307565b612166565b6040516104cf9190612bd9565b60405180910390f35b3480156104e457600080fd5b506104ff60048036038101906104fa91906123c4565b61217e565b60405161050c91906128e9565b60405180910390f35b34801561052157600080fd5b5061053c60048036038101906105379190612307565b6121bd565b005b60011515600660003373ffffffffffffffffffffffffffffffffffffffff1673ffffffffffffffffffffffffffffffffffffffff16815260200190815260200160002060009054906101000a900460ff161515146105d1576040517f08c379a00000000000000000000000000000000000000000000000000000000081526004016105c890612a79565b60405180910390fd5b600360009054906101000a900460ff1615610621576040517f08c379a000000000000000000000000000000000000000000000000000000000815260040161061890612a59565b60405180910390fd5b6000600760003373ffffffffffffffffffffffffffffffffffffffff1673ffffffffffffffffffffffffffffffffffffffff16815260200190815260200160002054146106a3576040517f08c379a000000000000000000000000000000000000000000000000000000000815260040161069a90612a39565b60405180910390fd5b6001600660008373ffffffffffffffffffffffffffffffffffffffff1673ffffffffffffffffffffffffffffffffffffffff16815260200190815260200160002060006101000a81548160ff0219169083151502179055506000600660003373ffffffffffffffffffffffffffffffffffffffff1673ffffffffffffffffffffffffffffffffffffffff16815260200190815260200160002060006101000a81548160ff02191690831515021790555060005b600580549050811015610974573373ffffffffffffffffffffffffffffffffffffffff16600582815481106107b4577f4e487b7100000000000000000000000000000000000000000000000000000000600052603260045260246000fd5b9060005260206000200160009054906101000a900473ffffffffffffffffffffffffffffffffffffffff1673ffffffffffffffffffffffffffffffffffffffff161415610961576005600160058054905061080f9190612ccb565b81548110610846577f4e487b7100000000000000000000000000000000000000000000000000000000600052603260045260246000fd5b9060005260206000200160009054906101000a900473ffffffffffffffffffffffffffffffffffffffff16600582815481106108ab577f4e487b7100000000000000000000000000000000000000000000000000000000600052603260045260246000fd5b9060005260206000200160006101000a81548173ffffffffffffffffffffffffffffffffffffffff021916908373ffffffffffffffffffffffffffffffffffffffff160217905550600580548061092b577f4e487b7100000000000000000000000000000000000000000000000000000000600052603160045260246000fd5b6001900381819060005260206000200160006101000a81549073ffffffffffffffffffffffffffffffffffffffff021916905590555b808061096c90612d47565b915050610756565b506005819080600181540180825580915050600190039060005260206000200160009091909190916101000a81548173ffffffffffffffffffffffffffffffffffffffff021916908373ffffffffffffffffffffffffffffffffffffffff16021790555050565b60008054906101000a900473ffffffffffffffffffffffffffffffffffffffff1673ffffffffffffffffffffffffffffffffffffffff163373ffffffffffffffffffffffffffffffffffffffff1614610a69576040517f08c379a0000000000000000000000000000000000000000000000000000000008152600401610a6090612bb9565b60405180910390fd5b60011515600360009054906101000a900460ff16151514610abf576040517f08c379a0000000000000000000000000000000000000000000000000000000008152600401610ab690612b99565b60405180910390fd5b6000600360006101000a81548160ff021916908315150217905550565b6000600154905090565b60008054906101000a900473ffffffffffffffffffffffffffffffffffffffff1673ffffffffffffffffffffffffffffffffffffffff163373ffffffffffffffffffffffffffffffffffffffff1614610b74576040517f08c379a0000000000000000000000000000000000000000000000000000000008152600401610b6b90612bb9565b60405180910390fd5b600360009054906101000a900460ff1615610bc4576040517f08c379a0000000000000000000000000000000000000000000000000000000008152600401610bbb90612ab9565b60405180910390fd5b3460016000828254610bd69190612c75565b925050819055507fa8e5edac0de82b638f0015ef71635fd58f7ef2ad755d5872c28c92b98f2b76fa3060015434604051610c12939291906129c5565b60405180910390a1565b6000600660008373ffffffffffffffffffffffffffffffffffffffff1673ffffffffffffffffffffffffffffffffffffffff16815260200190815260200160002060009054906101000a900460ff169050919050565b60025481565b60008054906101000a900473ffffffffffffffffffffffffffffffffffffffff1673ffffffffffffffffffffffffffffffffffffffff163373ffffffffffffffffffffffffffffffffffffffff1614610d06576040517f08c379a0000000000000000000000000000000000000000000000000000000008152600401610cfd90612bb9565b60405180910390fd5b6000600760008473ffffffffffffffffffffffffffffffffffffffff1673ffffffffffffffffffffffffffffffffffffffff168152602001908152602001600020541415610d89576040517f08c379a0000000000000000000000000000000000000000000000000000000008152600401610d8090612b19565b60405180910390fd5b6000429050600760008473ffffffffffffffffffffffffffffffffffffffff1673ffffffffffffffffffffffffffffffffffffffff168152602001908152602001600020548111610e0f576040517f08c379a0000000000000000000000000000000000000000000000000000000008152600401610e0690612b79565b60405180910390fd5b60001515600660008473ffffffffffffffffffffffffffffffffffffffff1673ffffffffffffffffffffffffffffffffffffffff16815260200190815260200160002060009054906101000a900460ff16151514610ea2576040517f08c379a0000000000000000000000000000000000000000000000000000000008152600401610e9990612b59565b60405180910390fd5b6000600760008573ffffffffffffffffffffffffffffffffffffffff1673ffffffffffffffffffffffffffffffffffffffff168152602001908152602001600020819055506000600660008573ffffffffffffffffffffffffffffffffffffffff1673ffffffffffffffffffffffffffffffffffffffff16815260200190815260200160002060006101000a81548160ff0219169083151502179055506001600660008473ffffffffffffffffffffffffffffffffffffffff1673ffffffffffffffffffffffffffffffffffffffff16815260200190815260200160002060006101000a81548160ff02191690831515021790555060005b6005805490508110156111b8578373ffffffffffffffffffffffffffffffffffffffff1660058281548110610ff8577f4e487b7100000000000000000000000000000000000000000000000000000000600052603260045260246000fd5b9060005260206000200160009054906101000a900473ffffffffffffffffffffffffffffffffffffffff1673ffffffffffffffffffffffffffffffffffffffff1614156111a557600560016005805490506110539190612ccb565b8154811061108a577f4e487b7100000000000000000000000000000000000000000000000000000000600052603260045260246000fd5b9060005260206000200160009054906101000a900473ffffffffffffffffffffffffffffffffffffffff16600582815481106110ef577f4e487b7100000000000000000000000000000000000000000000000000000000600052603260045260246000fd5b9060005260206000200160006101000a81548173ffffffffffffffffffffffffffffffffffffffff021916908373ffffffffffffffffffffffffffffffffffffffff160217905550600580548061116f577f4e487b7100000000000000000000000000000000000000000000000000000000600052603160045260246000fd5b6001900381819060005260206000200160006101000a81549073ffffffffffffffffffffffffffffffffffffffff021916905590555b80806111b090612d47565b915050610f9a565b506005829080600181540180825580915050600190039060005260206000200160009091909190916101000a81548173ffffffffffffffffffffffffffffffffffffffff021916908373ffffffffffffffffffffffffffffffffffffffff1602179055507ffd015379944f1fa7395803b791eb239f99b441be26e0ef3aca28decb16bf190330848460405161124f93929190612904565b60405180910390a1505050565b606060058054806020026020016040519081016040528092919081815260200182805480156112e057602002820191906000526020600020905b8160009054906101000a900473ffffffffffffffffffffffffffffffffffffffff1673ffffffffffffffffffffffffffffffffffffffff1681526020019060010190808311611296575b5050505050905090565b60008054906101000a900473ffffffffffffffffffffffffffffffffffffffff1673ffffffffffffffffffffffffffffffffffffffff163373ffffffffffffffffffffffffffffffffffffffff1614611378576040517f08c379a000000000000000000000000000000000000000000000000000000000815260040161136f90612bb9565b60405180910390fd5b600360009054906101000a900460ff16156113c8576040517f08c379a00000000000000000000000000000000000000000000000000000000081526004016113bf90612ab9565b60405180910390fd5b80600154101561140d576040517f08c379a000000000000000000000000000000000000000000000000000000000815260040161140490612b39565b60405180910390fd5b806001600082825461141f9190612ccb565b9250508190555060008054906101000a900473ffffffffffffffffffffffffffffffffffffffff1673ffffffffffffffffffffffffffffffffffffffff166108fc829081150290604051600060405180830381858888f1935050505015801561148c573d6000803e3d6000fd5b507ffc683a11a9b191bdfab4d71974db1d5e8d1323e8ae5606713e05bfe2ff30cf1d30600154836040516114c2939291906129c5565b60405180910390a150565b60011515600660003373ffffffffffffffffffffffffffffffffffffffff1673ffffffffffffffffffffffffffffffffffffffff16815260200190815260200160002060009054906101000a900460ff16151514611560576040517f08c379a000000000000000000000000000000000000000000000000000000000815260040161155790612a79565b60405180910390fd5b60011515600360009054906101000a900460ff161515146115b6576040517f08c379a00000000000000000000000000000000000000000000000000000000081526004016115ad90612b99565b60405180910390fd5b600454600860003373ffffffffffffffffffffffffffffffffffffffff1673ffffffffffffffffffffffffffffffffffffffff1681526020019081526020016000206000018190555080600860003373ffffffffffffffffffffffffffffffffffffffff1673ffffffffffffffffffffffffffffffffffffffff16815260200190815260200160002060010160006101000a81548173ffffffffffffffffffffffffffffffffffffffff021916908373ffffffffffffffffffffffffffffffffffffffff1602179055506000600860003373ffffffffffffffffffffffffffffffffffffffff1673ffffffffffffffffffffffffffffffffffffffff16815260200190815260200160002060010160146101000a81548160ff0219169083151502179055507f1e721b5b7ee2072a1f0ed5cc812719ce9be4df69815953b6da782c3c410ad1243060045433846040516117129493929190612980565b60405180910390a150565b60011515600660003373ffffffffffffffffffffffffffffffffffffffff1673ffffffffffffffffffffffffffffffffffffffff16815260200190815260200160002060009054906101000a900460ff161515146117b0576040517f08c379a00000000000000000000000000000000000000000000000000000000081526004016117a790612a79565b60405180910390fd5b60011515600360009054906101000a900460ff16151514611806576040517f08c379a00000000000000000000000000000000000000000000000000000000081526004016117fd90612b99565b60405180910390fd5b60025482829050101561184e576040517f08c379a000000000000000000000000000000000000000000000000000000000815260040161184590612a99565b60405180910390fd5b60008060009054906101000a900473ffffffffffffffffffffffffffffffffffffffff1690506000806000805b86869050811015611b2c5760008787838181106118c1577f4e487b7100000000000000000000000000000000000000000000000000000000600052603260045260246000fd5b90506020020160208101906118d69190612307565b905060011515600660008373ffffffffffffffffffffffffffffffffffffffff1673ffffffffffffffffffffffffffffffffffffffff16815260200190815260200160002060009054906101000a900460ff1615151415611b0b57600860008273ffffffffffffffffffffffffffffffffffffffff1673ffffffffffffffffffffffffffffffffffffffff16815260200190815260200160002060010160149054906101000a900460ff16611af957600454600860008373ffffffffffffffffffffffffffffffffffffffff1673ffffffffffffffffffffffffffffffffffffffff168152602001908152602001600020600001541415611ae7578873ffffffffffffffffffffffffffffffffffffffff16600860008373ffffffffffffffffffffffffffffffffffffffff1673ffffffffffffffffffffffffffffffffffffffff16815260200190815260200160002060010160009054906101000a900473ffffffffffffffffffffffffffffffffffffffff1673ffffffffffffffffffffffffffffffffffffffff161415611ad5576001600860008373ffffffffffffffffffffffffffffffffffffffff1673ffffffffffffffffffffffffffffffffffffffff16815260200190815260200160002060010160146101000a81548160ff0219169083151502179055508480611acd90612d47565b955050611ae2565b8192506001935050611b2c565b611af4565b8192506001935050611b2c565b611b06565b8192506001935050611b2c565b611b18565b8192506001935050611b2c565b508080611b2490612d47565b91505061187b565b508115611c015760005b81811015611bff576000878783818110611b79577f4e487b7100000000000000000000000000000000000000000000000000000000600052603260045260246000fd5b9050602002016020810190611b8e9190612307565b90506000600860008373ffffffffffffffffffffffffffffffffffffffff1673ffffffffffffffffffffffffffffffffffffffff16815260200190815260200160002060010160146101000a81548160ff021916908315150217905550508080611bf790612d47565b915050611b36565b505b600254831015611c46576040517f08c379a0000000000000000000000000000000000000000000000000000000008152600401611c3d90612af9565b60405180910390fd5b6000600360006101000a81548160ff021916908315150217905550866000806101000a81548173ffffffffffffffffffffffffffffffffffffffff021916908373ffffffffffffffffffffffffffffffffffffffff1602179055507ff0c9129a94f30f1caaceb63e44b9811d0a3edf1d6c23757f346093af5553fed0308589604051611cd493929190612904565b60405180910390a150505050505050565b60008054906101000a900473ffffffffffffffffffffffffffffffffffffffff1673ffffffffffffffffffffffffffffffffffffffff163373ffffffffffffffffffffffffffffffffffffffff1614611d73576040517f08c379a0000000000000000000000000000000000000000000000000000000008152600401611d6a90612bb9565b60405180910390fd5b6000429050600a81611d859190612c75565b600760008473ffffffffffffffffffffffffffffffffffffffff1673ffffffffffffffffffffffffffffffffffffffff168152602001908152602001600020819055505050565b60008054906101000a900473ffffffffffffffffffffffffffffffffffffffff1681565b600360009054906101000a900460ff1681565b60086020528060005260406000206000915090508060000154908060010160009054906101000a900473ffffffffffffffffffffffffffffffffffffffff16908060010160149054906101000a900460ff16905083565b60045481565b6000600760008373ffffffffffffffffffffffffffffffffffffffff1673ffffffffffffffffffffffffffffffffffffffff168152602001908152602001600020549050919050565b60015481565b6000600860008373ffffffffffffffffffffffffffffffffffffffff1673ffffffffffffffffffffffffffffffffffffffff16815260200190815260200160002060010160009054906101000a900473ffffffffffffffffffffffffffffffffffffffff169050919050565b60011515600660003373ffffffffffffffffffffffffffffffffffffffff1673ffffffffffffffffffffffffffffffffffffffff16815260200190815260200160002060009054906101000a900460ff16151514611fae576040517f08c379a0000000000000000000000000000000000000000000000000000000008152600401611fa590612a79565b60405180910390fd5b60001515600360009054906101000a900460ff16151514612004576040517f08c379a0000000000000000000000000000000000000000000000000000000008152600401611ffb90612ad9565b60405180910390fd5b6001600460008282546120179190612c75565b925050819055506001600360006101000a81548160ff021916908315150217905550604051806060016040528060045481526020018273ffffffffffffffffffffffffffffffffffffffff16815260200160001515815250600860003373ffffffffffffffffffffffffffffffffffffffff1673ffffffffffffffffffffffffffffffffffffffff1681526020019081526020016000206000820151816000015560208201518160010160006101000a81548173ffffffffffffffffffffffffffffffffffffffff021916908373ffffffffffffffffffffffffffffffffffffffff16021790555060408201518160010160146101000a81548160ff0219169083151502179055509050507fc46d98493f65edb910ac463b3a1eaa7e62cb74e622eeec4071260050ac4305cb303360045460025460405161215b949392919061293b565b60405180910390a150565b60076020528060005260406000206000915090505481565b6005818154811061218e57600080fd5b906000526020600020016000915054906101000a900473ffffffffffffffffffffffffffffffffffffffff1681565b60008054906101000a900473ffffffffffffffffffffffffffffffffffffffff1673ffffffffffffffffffffffffffffffffffffffff163373ffffffffffffffffffffffffffffffffffffffff161461224b576040517f08c379a000000000000000000000000000000000000000000000000000000000815260040161224290612bb9565b60405180910390fd5b6000600760008373ffffffffffffffffffffffffffffffffffffffff1673ffffffffffffffffffffffffffffffffffffffff1681526020019081526020016000208190555050565b6000813590506122a281612dbf565b92915050565b60008083601f8401126122ba57600080fd5b8235905067ffffffffffffffff8111156122d357600080fd5b6020830191508360208202830111156122eb57600080fd5b9250929050565b60008135905061230181612dd6565b92915050565b60006020828403121561231957600080fd5b600061232784828501612293565b91505092915050565b6000806040838503121561234357600080fd5b600061235185828601612293565b925050602061236285828601612293565b9150509250929050565b60008060006040848603121561238157600080fd5b600061238f86828701612293565b935050602084013567ffffffffffffffff8111156123ac57600080fd5b6123b8868287016122a8565b92509250509250925092565b6000602082840312156123d657600080fd5b60006123e4848285016122f2565b91505092915050565b60006123f98383612405565b60208301905092915050565b61240e81612cff565b82525050565b61241d81612cff565b82525050565b600061242e82612c3b565b6124388185612c53565b935061244383612c2b565b8060005b8381101561247457815161245b88826123ed565b975061246683612c46565b925050600181019050612447565b5085935050505092915050565b61248a81612d11565b82525050565b600061249d601d83612c64565b91507f477561726469616e20697320696e2072656d6f76616c20706572696f640000006000830152602082019050919050565b60006124dd603083612c64565b91507f43616e6e6f74207472616e7366657220677561726469616e20647572696e672060008301527f7265636f766572792070726f63657373000000000000000000000000000000006020830152604082019050919050565b6000612543602683612c64565b91507f4f6e6c7920677561726469616e732063616e20706572666f726d20746869732060008301527f616374696f6e00000000000000000000000000000000000000000000000000006020830152604082019050919050565b60006125a9601683612c64565b91507f496e73756666696369656e7420677561726469616e73000000000000000000006000830152602082019050919050565b60006125e9602f83612c64565b91507f43616e6e6f742073656e64207472616e73616374696f6e20647572696e67207260008301527f65636f766572792070726f6365737300000000000000000000000000000000006020830152604082019050919050565b600061264f601f83612c64565b91507f416c726561647920696e20746865207265636f766572792070726f63657373006000830152602082019050919050565b600061268f601483612c64565b91507f496e73756666696369656e7420737570706f72740000000000000000000000006000830152602082019050919050565b60006126cf601e83612c64565b91507f477561726469616e2072656d6f76616c206e6f74207363686564756c656400006000830152602082019050919050565b600061270f603283612c64565b91507f43616e6e6f74206e6f74207769746864726177206d6f7265207468616e20746f60008301527f74616c206465706f73697420616d6f756e7400000000000000000000000000006020830152604082019050919050565b6000612775602d83612c64565b91507f4e657720677561726469616e2077617320616c7265616479206265656e20677560008301527f61726469616e206265666f7265000000000000000000000000000000000000006020830152604082019050919050565b60006127db602283612c64565b91507f477561726469616e2072656d6f76616c20706572696f64206e6f74207061737360008301527f65640000000000000000000000000000000000000000000000000000000000006020830152604082019050919050565b6000612841602083612c64565b91507f4f6e6c7920647572696e6720746865207265636f766572792070726f636573736000830152602082019050919050565b6000612881602283612c64565b91507f4f6e6c79206f776e65722063616e20706572666f726d2074686973206163746960008301527f6f6e0000000000000000000000000000000000000000000000000000000000006020830152604082019050919050565b6128e381612d3d565b82525050565b60006020820190506128fe6000830184612414565b92915050565b60006060820190506129196000830186612414565b6129266020830185612414565b6129336040830184612414565b949350505050565b60006080820190506129506000830187612414565b61295d6020830186612414565b61296a60408301856128da565b61297760608301846128da565b95945050505050565b60006080820190506129956000830187612414565b6129a260208301866128da565b6129af6040830185612414565b6129bc6060830184612414565b95945050505050565b60006060820190506129da6000830186612414565b6129e760208301856128da565b6129f460408301846128da565b949350505050565b60006020820190508181036000830152612a168184612423565b905092915050565b6000602082019050612a336000830184612481565b92915050565b60006020820190508181036000830152612a5281612490565b9050919050565b60006020820190508181036000830152612a72816124d0565b9050919050565b60006020820190508181036000830152612a9281612536565b9050919050565b60006020820190508181036000830152612ab28161259c565b9050919050565b60006020820190508181036000830152612ad2816125dc565b9050919050565b60006020820190508181036000830152612af281612642565b9050919050565b60006020820190508181036000830152612b1281612682565b9050919050565b60006020820190508181036000830152612b32816126c2565b9050919050565b60006020820190508181036000830152612b5281612702565b9050919050565b60006020820190508181036000830152612b7281612768565b9050919050565b60006020820190508181036000830152612b92816127ce565b9050919050565b60006020820190508181036000830152612bb281612834565b9050919050565b60006020820190508181036000830152612bd281612874565b9050919050565b6000602082019050612bee60008301846128da565b92915050565b6000606082019050612c0960008301866128da565b612c166020830185612414565b612c236040830184612481565b949350505050565b6000819050602082019050919050565b600081519050919050565b6000602082019050919050565b600082825260208201905092915050565b600082825260208201905092915050565b6000612c8082612d3d565b9150612c8b83612d3d565b9250827fffffffffffffffffffffffffffffffffffffffffffffffffffffffffffffffff03821115612cc057612cbf612d90565b5b828201905092915050565b6000612cd682612d3d565b9150612ce183612d3d565b925082821015612cf457612cf3612d90565b5b828203905092915050565b6000612d0a82612d1d565b9050919050565b60008115159050919050565b600073ffffffffffffffffffffffffffffffffffffffff82169050919050565b6000819050919050565b6000612d5282612d3d565b91507fffffffffffffffffffffffffffffffffffffffffffffffffffffffffffffffff821415612d8557612d84612d90565b5b600182019050919050565b7f4e487b7100000000000000000000000000000000000000000000000000000000600052601160045260246000fd5b612dc881612cff565b8114612dd357600080fd5b50565b612ddf81612d3d565b8114612dea57600080fd5b5056fea2646970667358221220b138faeb6f884e6b2ca21335acd5c5c59d451a377889429f90997ade0eeabf3e64736f6c63430008000033",
  "immutableReferences": {},
  "source": "// SPDX-License-Identifier: MIT\npragma solidity ^0.8.0;\n\ncontract SocialRecoveryWallet{\n    address public owner; // Wallet \n    uint public totalDepositAmount ; //wei \n    uint public threshold; // guardian \n    bool public isRecovering; // \n    uint public currRecoveryRound; // \n    address[] public guardians;\n    /*\n     guardian  value  false\n     guardian  value  true\n    */\n    struct RecoverInfo {\n        uint recoveryRound; // \n        address newOwnerAddr; //  Owner \n        bool used; //  Guardian  Recover  true\n                   //  executeRecovery  Recovery  true\n                   // \n    }\n    mapping(address => bool) isGuardian; // Wallet \n    mapping(address => uint256) public guardianRemovalPeriod; // \n    mapping(address => RecoverInfo) public guardianToRecovery; // \n    \n\n    modifier onlyOwner() { // sender  owner address ( owner )\n        require(msg.sender == owner, \"Only owner can perform this action\");\n        _;\n    }\n    modifier onlyGuardian() { // sender  guardian address  ( guardian )\n        require(isGuardian[msg.sender] == true, \"Only guardians can perform this action\");\n        _;\n    }\n    modifier onlyInRecovery() { //\n        require(isRecovering == true, \"Only during the recovery process\");\n        _;\n    }\n    event RecoveryStart(address contractAddress, address initator,  uint currentRecoveryRound, uint threshold);\n    event GuardianSupportRecovery(address contractAddress, uint currentRecoveryRound, address guardianAddr, address newOwnerAddr);\n    event RecoverySuccess(address contractAddress, address oldOwnerAddr, address newOwnerAddr);\n    event RemoveGuardianSuccess(address contractAddress, address removeOldGuardian, address AddNewGuardian);\n    event DepositMoneySuccess(address contractAddress, uint totalether, uint deposit);\n    event WithdrawMoneySuccess(address contractAddress, uint totalether, uint withdraw);\n\n    constructor(uint _threshold, address[] memory _initialGuardians) {\n        owner = msg.sender; // Wallet \n        threshold = _threshold; //  Guardian  owner \n        require(_initialGuardians.length >= _threshold,\"Initial guardian amount can't less than threshold number\");\n        //  guardian\n        for (uint i = 0; i < _initialGuardians.length; i++) {\n            address guardian = _initialGuardians[i];\n            guardians.push(_initialGuardians[i]);\n            isGuardian[guardian] = true;\n        }\n        totalDepositAmount = 0;\n    }\n    function depositMoney() external payable onlyOwner{\n        require(!isRecovering, \"Cannot send transaction during recovery process\");\n        totalDepositAmount += msg.value;\n        emit DepositMoneySuccess(address(this), totalDepositAmount, msg.value);\n    }\n    function withdrawMoney(uint withdrawValue) external payable onlyOwner{\n        require(!isRecovering, \"Cannot send transaction during recovery process\");\n        require(totalDepositAmount>=withdrawValue, \"Cannot not withdraw more than total deposit amount\");\n        totalDepositAmount -= withdrawValue;\n        payable(owner).transfer(withdrawValue);\n        emit WithdrawMoneySuccess(address(this), totalDepositAmount, withdrawValue);\n    }\n    function getBalance() external view returns(uint balance){\n        return(totalDepositAmount);\n    }\n    function getAllGuardianList() external view returns(address[] memory){\n        return(guardians);\n    }\n    function getGuardianRemovalPeriod(address guardian) external view returns(uint){\n        return(guardianRemovalPeriod[guardian]);\n    }\n    function removeGuardian(address removingGuardian) external onlyOwner {\n        //  Removal Period  timestamp + 1 Days (86400)\n        // :  Removal Period  timestamp + 10 \n        uint256 currentTimestamp = block.timestamp;\n        guardianRemovalPeriod[removingGuardian] = currentTimestamp + 10;\n    }\n    function executeGuardianRemoval(address removingGuardian, address newGuardian) external onlyOwner {\n        //  oldGuardian \n        require(guardianRemovalPeriod[removingGuardian] != 0, \"Guardian removal not scheduled\");\n        //  Removal Period \n        uint256 currentTimestamp = block.timestamp;\n        require(currentTimestamp > guardianRemovalPeriod[removingGuardian], \"Guardian removal period not passed\");\n        //  new Guardian  \n        require(isGuardian[newGuardian]==false, \"New guardian was already been guardian before\");\n        //  Removal Period Timestamp  0 (means not in Removal Period)\n        guardianRemovalPeriod[removingGuardian] = 0;\n        //  Guardian Data Structures\n        isGuardian[removingGuardian] = false;\n        isGuardian[newGuardian] = true;\n        for (uint256 i = 0; i < guardians.length; i++) {\n            if (guardians[i] == removingGuardian) {\n                // \n                guardians[i] = guardians[guardians.length - 1];\n                guardians.pop();\n            }\n        }\n        guardians.push(newGuardian);\n        emit RemoveGuardianSuccess(address(this), removingGuardian, newGuardian);\n    }\n    function cancelGuardianRemoval(address removingGuardian) onlyOwner external {\n        //  Removal Period Timestamp  0 (means not in Removal Period)\n        guardianRemovalPeriod[removingGuardian] = 0;\n    }\n    function transferGuardian(address newGuardian) external onlyGuardian{\n       //  Recovery Period\n       require(!isRecovering, \"Cannot transfer guardian during recovery process\");\n       //  msg.sender Guardian  Removal Period\n       require(guardianRemovalPeriod[msg.sender] == 0, \"Guardian is in removal period\");\n       //  Guardian Data Structures\n       isGuardian[newGuardian] = true;\n       isGuardian[msg.sender] = false;\n       for (uint256 i = 0; i < guardians.length; i++) {\n            if (guardians[i] == msg.sender) {\n                // \n                guardians[i] = guardians[guardians.length - 1];\n                guardians.pop();\n            }\n        }\n        guardians.push(newGuardian);\n    }\n    // Guardian  Recovery\n    function initiateRecovery(address _newOwnerAddr) onlyGuardian external {\n       //  Recoveringcheck isRecovering == false\n       require(isRecovering == false,\"Already in the recovery process\");\n       // \n       currRecoveryRound += 1;\n       // \n       isRecovering = true;\n       //  guardianToRecovery[msg.sender] \n       guardianToRecovery[msg.sender] = RecoverInfo(currRecoveryRound, _newOwnerAddr, false);\n       emit RecoveryStart(address(this), msg.sender,  currRecoveryRound, threshold);\n    }\n    // Guardian  Recovery \n    function supportRecovery(address _newOwnerAddr) onlyGuardian onlyInRecovery external {\n       //  guardianToRecovery[msg.sender] \n       guardianToRecovery[msg.sender].recoveryRound = currRecoveryRound;\n       guardianToRecovery[msg.sender].newOwnerAddr = _newOwnerAddr;\n       guardianToRecovery[msg.sender].used = false;\n       emit GuardianSupportRecovery(address(this), currRecoveryRound, msg.sender, _newOwnerAddr);\n    }\n    // Owner  Recovery \n    function cancelRecovery() onlyOwner onlyInRecovery external {\n        // \n        isRecovering = false;\n    }\n    //  Recovery\n    function executeRecovery(address newOwner, address[] calldata guardianList) onlyGuardian onlyInRecovery external {\n        //  guardianList  threshold\n        require(guardianList.length >= threshold, \"Insufficient guardians\");\n        address oldOwner = owner;\n        uint supportCount = 0;\n        bool somethingWrong = false;\n        uint index = 0;\n        for (uint i = 0; i < guardianList.length; i++) {\n            address guardian = guardianList[i];\n            //  Guardian\n            if(isGuardian[guardian]==true){\n                //  Guardian  used == false\n                if(!guardianToRecovery[guardian].used){\n                    //  Guardian  RecoveryRound == currRecoveryRound\n                    if(guardianToRecovery[guardian].recoveryRound == currRecoveryRound){\n                        //  Guardian  newOwnerAddr == newOwner\n                        if(guardianToRecovery[guardian].newOwnerAddr == newOwner){\n                            //  Guardian  used = true\n                            guardianToRecovery[guardian].used = true;\n                            supportCount++;\n                        }else{\n                            index = i;\n                            somethingWrong = true;\n                            break;\n                        }\n                    }else{\n                        index = i;\n                        somethingWrong = true;\n                        break;\n                    }\n                }else{\n                    index = i;\n                    somethingWrong = true;\n                    break;\n                }\n            }else{\n                index = i;\n                somethingWrong = true;\n                break;\n            }\n        }\n        if(somethingWrong){\n            for (uint i = 0; i < index; i++) {\n                address guardian = guardianList[i];\n                guardianToRecovery[guardian].used = false;\n            }\n        }\n        require(supportCount >= threshold, \"Insufficient support\");\n        //  Revert Recovery\n        isRecovering = false;\n        //  Owner \n        owner = newOwner;\n        emit RecoverySuccess(address(this), oldOwner, newOwner);\n    }\n    function getIsGuardianOrNot(address guardian) external view returns(bool isGuard){\n        isGuard = isGuardian[guardian];\n        return(isGuard);\n    }\n    function getGuardianSupportNewOwner(address guardian) external view returns(address newOwner){\n        return(guardianToRecovery[guardian].newOwnerAddr);\n    }\n}\n\n\n// \n/*\n    function executeRecovery(address newOwner, address[] calldata guardianList) onlyGuardian onlyInRecovery external {\n        //  guardianList  threshold\n        require(guardianList.length >= threshold, \"Insufficient guardians\");\n        uint supportCount = 0;\n        for (uint i = 0; i < guardianList.length; i++) {\n            address guardian = guardianList[i];\n            //  Guardian\n            require(isGuardian[guardian], \"Invalid guardian\");\n            //  Guardian  used == false\n            require(!guardianToRecovery[guardian].used, \"Recovery support already used\");\n            //  Guardian  RecoveryRound == currRecoveryRound\n            require(guardianToRecovery[guardian].recoveryRound == currRecoveryRound, \"Invalid recovery round\");\n            //  Guardian  newOwnerAddr == newOwner\n            require(guardianToRecovery[guardian].newOwnerAddr == newOwner, \"Invalid new owner address\");\n            //  Guardian  used = true\n            guardianToRecovery[guardian].used = true;\n            supportCount++;\n        }\n        require(supportCount >= threshold, \"Insufficient support\");\n        //  Revert Recovery\n        isRecovering = false;\n        //  Owner \n        owner = newOwner;\n    }\n*/\n//  guardian  owner \n//   guardians  Support address \n//           addree  threshold - 1  Support\n//           for threshold - 1 \n//           guardian  owner  guardian \n\n// \n//        gas  Guardian  gas \n\n\n\n\n",
  "sourcePath": "/Users/daniel_wang/blockchain/social-recovery-dapp/Social_Recovery/contracts/SocialRecoveryWallet.sol",
  "compiler": {
    "name": "solc",
    "version": "0.8.0+commit.c7dfd78e.Emscripten.clang"
  },
  "schemaVersion": "3.4.15",
  "updatedAt": "2024-04-29T03:01:31.553Z",
  "networkType": "ethereum",
  "devdoc": {
    "kind": "dev",
    "methods": {},
    "version": 1
  },
  "userdoc": {
    "kind": "user",
    "methods": {},
    "version": 1
  }
}