{
  "contractName": "SocialRecoveryWallet",
  "abi": [
    {
      "inputs": [
        {
          "internalType": "uint256",
          "name": "_threshold",
          "type": "uint256"
        },
        {
          "internalType": "address[]",
          "name": "_initialGuardians",
          "type": "address[]"
        }
      ],
      "stateMutability": "nonpayable",
      "type": "constructor"
    },
    {
      "anonymous": false,
      "inputs": [
        {
          "indexed": false,
          "internalType": "address",
          "name": "contractAddress",
          "type": "address"
        },
        {
          "indexed": false,
          "internalType": "uint256",
          "name": "totalether",
          "type": "uint256"
        },
        {
          "indexed": false,
          "internalType": "uint256",
          "name": "deposit",
          "type": "uint256"
        }
      ],
      "name": "DepositMoneySuccess",
      "type": "event"
    },
    {
      "anonymous": false,
      "inputs": [
        {
          "indexed": false,
          "internalType": "address",
          "name": "contractAddress",
          "type": "address"
        },
        {
          "indexed": false,
          "internalType": "uint256",
          "name": "currentRecoveryRound",
          "type": "uint256"
        },
        {
          "indexed": false,
          "internalType": "address",
          "name": "guardianAddr",
          "type": "address"
        },
        {
          "indexed": false,
          "internalType": "address",
          "name": "newOwnerAddr",
          "type": "address"
        }
      ],
      "name": "GuardianSupportRecovery",
      "type": "event"
    },
    {
      "anonymous": false,
      "inputs": [
        {
          "indexed": false,
          "internalType": "address",
          "name": "contractAddress",
          "type": "address"
        },
        {
          "indexed": false,
          "internalType": "address",
          "name": "initator",
          "type": "address"
        },
        {
          "indexed": false,
          "internalType": "uint256",
          "name": "currentRecoveryRound",
          "type": "uint256"
        },
        {
          "indexed": false,
          "internalType": "uint256",
          "name": "threshold",
          "type": "uint256"
        }
      ],
      "name": "RecoveryStart",
      "type": "event"
    },
    {
      "anonymous": false,
      "inputs": [
        {
          "indexed": false,
          "internalType": "address",
          "name": "contractAddress",
          "type": "address"
        },
        {
          "indexed": false,
          "internalType": "address",
          "name": "oldOwnerAddr",
          "type": "address"
        },
        {
          "indexed": false,
          "internalType": "address",
          "name": "newOwnerAddr",
          "type": "address"
        }
      ],
      "name": "RecoverySuccess",
      "type": "event"
    },
    {
      "anonymous": false,
      "inputs": [
        {
          "indexed": false,
          "internalType": "address",
          "name": "contractAddress",
          "type": "address"
        },
        {
          "indexed": false,
          "internalType": "address",
          "name": "removeOldGuardian",
          "type": "address"
        },
        {
          "indexed": false,
          "internalType": "address",
          "name": "AddNewGuardian",
          "type": "address"
        }
      ],
      "name": "RemoveGuardianSuccess",
      "type": "event"
    },
    {
      "anonymous": false,
      "inputs": [
        {
          "indexed": false,
          "internalType": "address",
          "name": "contractAddress",
          "type": "address"
        },
        {
          "indexed": false,
          "internalType": "uint256",
          "name": "totalether",
          "type": "uint256"
        },
        {
          "indexed": false,
          "internalType": "uint256",
          "name": "withdraw",
          "type": "uint256"
        }
      ],
      "name": "WithdrawMoneySuccess",
      "type": "event"
    },
    {
      "inputs": [],
      "name": "currRecoveryRound",
      "outputs": [
        {
          "internalType": "uint256",
          "name": "",
          "type": "uint256"
        }
      ],
      "stateMutability": "view",
      "type": "function",
      "constant": true
    },
    {
      "inputs": [
        {
          "internalType": "address",
          "name": "",
          "type": "address"
        }
      ],
      "name": "guardianRemovalPeriod",
      "outputs": [
        {
          "internalType": "uint256",
          "name": "",
          "type": "uint256"
        }
      ],
      "stateMutability": "view",
      "type": "function",
      "constant": true
    },
    {
      "inputs": [
        {
          "internalType": "address",
          "name": "",
          "type": "address"
        }
      ],
      "name": "guardianToRecovery",
      "outputs": [
        {
          "internalType": "uint256",
          "name": "recoveryRound",
          "type": "uint256"
        },
        {
          "internalType": "address",
          "name": "newOwnerAddr",
          "type": "address"
        },
        {
          "internalType": "bool",
          "name": "used",
          "type": "bool"
        }
      ],
      "stateMutability": "view",
      "type": "function",
      "constant": true
    },
    {
      "inputs": [],
      "name": "isRecovering",
      "outputs": [
        {
          "internalType": "bool",
          "name": "",
          "type": "bool"
        }
      ],
      "stateMutability": "view",
      "type": "function",
      "constant": true
    },
    {
      "inputs": [],
      "name": "owner",
      "outputs": [
        {
          "internalType": "address",
          "name": "",
          "type": "address"
        }
      ],
      "stateMutability": "view",
      "type": "function",
      "constant": true
    },
    {
      "inputs": [],
      "name": "threshold",
      "outputs": [
        {
          "internalType": "uint256",
          "name": "",
          "type": "uint256"
        }
      ],
      "stateMutability": "view",
      "type": "function",
      "constant": true
    },
    {
      "inputs": [],
      "name": "depositMoney",
      "outputs": [],
      "stateMutability": "payable",
      "type": "function",
      "payable": true
    },
    {
      "inputs": [
        {
          "internalType": "uint256",
          "name": "withdrawValue",
          "type": "uint256"
        }
      ],
      "name": "withdrawMoney",
      "outputs": [],
      "stateMutability": "payable",
      "type": "function",
      "payable": true
    },
    {
      "inputs": [],
      "name": "getBalance",
      "outputs": [
        {
          "internalType": "uint256",
          "name": "balance",
          "type": "uint256"
        }
      ],
      "stateMutability": "view",
      "type": "function",
      "constant": true
    },
    {
      "inputs": [
        {
          "internalType": "address",
          "name": "removingGuardian",
          "type": "address"
        }
      ],
      "name": "removeGuardian",
      "outputs": [],
      "stateMutability": "nonpayable",
      "type": "function"
    },
    {
      "inputs": [
        {
          "internalType": "address",
          "name": "removingGuardian",
          "type": "address"
        },
        {
          "internalType": "address",
          "name": "newGuardian",
          "type": "address"
        }
      ],
      "name": "executeGuardianRemoval",
      "outputs": [],
      "stateMutability": "nonpayable",
      "type": "function"
    },
    {
      "inputs": [
        {
          "internalType": "address",
          "name": "removingGuardian",
          "type": "address"
        }
      ],
      "name": "cancelGuardianRemoval",
      "outputs": [],
      "stateMutability": "nonpayable",
      "type": "function"
    },
    {
      "inputs": [
        {
          "internalType": "address",
          "name": "newGuardian",
          "type": "address"
        }
      ],
      "name": "transferGuardian",
      "outputs": [],
      "stateMutability": "nonpayable",
      "type": "function"
    },
    {
      "inputs": [
        {
          "internalType": "address",
          "name": "_newOwnerAddr",
          "type": "address"
        }
      ],
      "name": "initiateRecovery",
      "outputs": [],
      "stateMutability": "nonpayable",
      "type": "function"
    },
    {
      "inputs": [
        {
          "internalType": "address",
          "name": "_newOwnerAddr",
          "type": "address"
        }
      ],
      "name": "supportRecovery",
      "outputs": [],
      "stateMutability": "nonpayable",
      "type": "function"
    },
    {
      "inputs": [],
      "name": "cancelRecovery",
      "outputs": [],
      "stateMutability": "nonpayable",
      "type": "function"
    },
    {
      "inputs": [
        {
          "internalType": "address",
          "name": "newOwner",
          "type": "address"
        },
        {
          "internalType": "address[]",
          "name": "guardianList",
          "type": "address[]"
        }
      ],
      "name": "executeRecovery",
      "outputs": [],
      "stateMutability": "nonpayable",
      "type": "function"
    },
    {
      "inputs": [
        {
          "internalType": "address",
          "name": "guardian",
          "type": "address"
        }
      ],
      "name": "getIsGuardianOrNot",
      "outputs": [
        {
          "internalType": "bool",
          "name": "isGuard",
          "type": "bool"
        }
      ],
      "stateMutability": "view",
      "type": "function",
      "constant": true
    }
  ],
  "bytecode": "0x60806040523480156200001157600080fd5b5060405162002ae438038062002ae4833981810160405281019062000037919062000260565b336000806101000a81548173ffffffffffffffffffffffffffffffffffffffff021916908373ffffffffffffffffffffffffffffffffffffffff160217905550816002819055508181511015620000c5576040517f08c379a0000000000000000000000000000000000000000000000000000000008152600401620000bc9062000322565b60405180910390fd5b60005b8151811015620001875760008282815181106200010e577f4e487b7100000000000000000000000000000000000000000000000000000000600052603260045260246000fd5b602002602001015190506001600560008373ffffffffffffffffffffffffffffffffffffffff1673ffffffffffffffffffffffffffffffffffffffff16815260200190815260200160002060006101000a81548160ff0219169083151502179055505080806200017e90620003f6565b915050620000c8565b505050620004d6565b6000620001a7620001a18462000378565b62000344565b90508083825260208201905082856020860282011115620001c757600080fd5b60005b85811015620001fb5781620001e0888262000205565b845260208401935060208301925050600181019050620001ca565b5050509392505050565b6000815190506200021681620004a2565b92915050565b600082601f8301126200022e57600080fd5b81516200024084826020860162000190565b91505092915050565b6000815190506200025a81620004bc565b92915050565b600080604083850312156200027457600080fd5b6000620002848582860162000249565b925050602083015167ffffffffffffffff811115620002a257600080fd5b620002b0858286016200021c565b9150509250929050565b6000620002c9603883620003a7565b91507f496e697469616c20677561726469616e20616d6f756e742063616e2774206c6560008301527f7373207468616e207468726573686f6c64206e756d62657200000000000000006020830152604082019050919050565b600060208201905081810360008301526200033d81620002ba565b9050919050565b6000604051905081810181811067ffffffffffffffff821117156200036e576200036d62000473565b5b8060405250919050565b600067ffffffffffffffff82111562000396576200039562000473565b5b602082029050602081019050919050565b600082825260208201905092915050565b6000620003c582620003cc565b9050919050565b600073ffffffffffffffffffffffffffffffffffffffff82169050919050565b6000819050919050565b60006200040382620003ec565b91507fffffffffffffffffffffffffffffffffffffffffffffffffffffffffffffffff82141562000439576200043862000444565b5b600182019050919050565b7f4e487b7100000000000000000000000000000000000000000000000000000000600052601160045260246000fd5b7f4e487b7100000000000000000000000000000000000000000000000000000000600052604160045260246000fd5b620004ad81620003b8565b8114620004b957600080fd5b50565b620004c781620003ec565b8114620004d357600080fd5b50565b6125fe80620004e66000396000f3fe6080604052600436106101095760003560e01c80635fc489a711610095578063a079e2a111610064578063a079e2a114610301578063ace7c99314610340578063d5ce9aad1461036b578063ddce2b3f14610394578063fba0f565146103d157610109565b80635fc489a71461025957806371404156146102825780638da5cb5b146102ab57806391ac2788146102d657610109565b80631db57b17116100dc5780631db57b171461018357806342cde4e8146101c057806350f8fcf4146101eb578063548769211461021457806357e685bc1461023057610109565b8063091954cd1461010e5780630ba234d61461013757806312065fe01461014e57806316c05aa214610179575b600080fd5b34801561011a57600080fd5b5061013560048036038101906101309190611bc2565b6103fa565b005b34801561014357600080fd5b5061014c610612565b005b34801561015a57600080fd5b50610163610713565b60405161017091906123ed565b60405180910390f35b6101816107ac565b005b34801561018f57600080fd5b506101aa60048036038101906101a59190611bc2565b6108e2565b6040516101b79190612232565b60405180910390f35b3480156101cc57600080fd5b506101d5610938565b6040516101e291906123ed565b60405180910390f35b3480156101f757600080fd5b50610212600480360381019061020d9190611beb565b61093e565b005b61022e60048036038101906102299190611c7f565b610c9d565b005b34801561023c57600080fd5b5061025760048036038101906102529190611bc2565b610e80565b005b34801561026557600080fd5b50610280600480360381019061027b9190611c27565b6110d0565b005b34801561028e57600080fd5b506102a960048036038101906102a49190611bc2565b611698565b005b3480156102b757600080fd5b506102c0611781565b6040516102cd919061211f565b60405180910390f35b3480156102e257600080fd5b506102eb6117a5565b6040516102f89190612232565b60405180910390f35b34801561030d57600080fd5b5061032860048036038101906103239190611bc2565b6117b8565b60405161033793929190612408565b60405180910390f35b34801561034c57600080fd5b5061035561180f565b60405161036291906123ed565b60405180910390f35b34801561037757600080fd5b50610392600480360381019061038d9190611bc2565b611815565b005b3480156103a057600080fd5b506103bb60048036038101906103b69190611bc2565b611a60565b6040516103c891906123ed565b60405180910390f35b3480156103dd57600080fd5b506103f860048036038101906103f39190611bc2565b611a78565b005b60011515600560003373ffffffffffffffffffffffffffffffffffffffff1673ffffffffffffffffffffffffffffffffffffffff16815260200190815260200160002060009054906101000a900460ff1615151461048d576040517f08c379a00000000000000000000000000000000000000000000000000000000081526004016104849061228d565b60405180910390fd5b600360009054906101000a900460ff16156104dd576040517f08c379a00000000000000000000000000000000000000000000000000000000081526004016104d49061226d565b60405180910390fd5b6000600660003373ffffffffffffffffffffffffffffffffffffffff1673ffffffffffffffffffffffffffffffffffffffff168152602001908152602001600020541461055f576040517f08c379a00000000000000000000000000000000000000000000000000000000081526004016105569061224d565b60405180910390fd5b6001600560008373ffffffffffffffffffffffffffffffffffffffff1673ffffffffffffffffffffffffffffffffffffffff16815260200190815260200160002060006101000a81548160ff0219169083151502179055506000600560003373ffffffffffffffffffffffffffffffffffffffff1673ffffffffffffffffffffffffffffffffffffffff16815260200190815260200160002060006101000a81548160ff02191690831515021790555050565b60008054906101000a900473ffffffffffffffffffffffffffffffffffffffff1673ffffffffffffffffffffffffffffffffffffffff163373ffffffffffffffffffffffffffffffffffffffff16146106a0576040517f08c379a0000000000000000000000000000000000000000000000000000000008152600401610697906123cd565b60405180910390fd5b60011515600360009054906101000a900460ff161515146106f6576040517f08c379a00000000000000000000000000000000000000000000000000000000081526004016106ed906123ad565b60405180910390fd5b6000600360006101000a81548160ff021916908315150217905550565b60008060009054906101000a900473ffffffffffffffffffffffffffffffffffffffff1673ffffffffffffffffffffffffffffffffffffffff163373ffffffffffffffffffffffffffffffffffffffff16146107a4576040517f08c379a000000000000000000000000000000000000000000000000000000000815260040161079b906123cd565b60405180910390fd5b600154905090565b60008054906101000a900473ffffffffffffffffffffffffffffffffffffffff1673ffffffffffffffffffffffffffffffffffffffff163373ffffffffffffffffffffffffffffffffffffffff161461083a576040517f08c379a0000000000000000000000000000000000000000000000000000000008152600401610831906123cd565b60405180910390fd5b600360009054906101000a900460ff161561088a576040517f08c379a0000000000000000000000000000000000000000000000000000000008152600401610881906122cd565b60405180910390fd5b346001600082825461089c9190612450565b925050819055507fa8e5edac0de82b638f0015ef71635fd58f7ef2ad755d5872c28c92b98f2b76fa30600154346040516108d8939291906121fb565b60405180910390a1565b6000600560008373ffffffffffffffffffffffffffffffffffffffff1673ffffffffffffffffffffffffffffffffffffffff16815260200190815260200160002060009054906101000a900460ff169050919050565b60025481565b60008054906101000a900473ffffffffffffffffffffffffffffffffffffffff1673ffffffffffffffffffffffffffffffffffffffff163373ffffffffffffffffffffffffffffffffffffffff16146109cc576040517f08c379a00000000000000000000000000000000000000000000000000000000081526004016109c3906123cd565b60405180910390fd5b6000600660008473ffffffffffffffffffffffffffffffffffffffff1673ffffffffffffffffffffffffffffffffffffffff168152602001908152602001600020541415610a4f576040517f08c379a0000000000000000000000000000000000000000000000000000000008152600401610a469061232d565b60405180910390fd5b6000429050600660008473ffffffffffffffffffffffffffffffffffffffff1673ffffffffffffffffffffffffffffffffffffffff168152602001908152602001600020548111610ad5576040517f08c379a0000000000000000000000000000000000000000000000000000000008152600401610acc9061238d565b60405180910390fd5b60001515600560008473ffffffffffffffffffffffffffffffffffffffff1673ffffffffffffffffffffffffffffffffffffffff16815260200190815260200160002060009054906101000a900460ff16151514610b68576040517f08c379a0000000000000000000000000000000000000000000000000000000008152600401610b5f9061236d565b60405180910390fd5b6000600660008573ffffffffffffffffffffffffffffffffffffffff1673ffffffffffffffffffffffffffffffffffffffff168152602001908152602001600020819055506000600560008573ffffffffffffffffffffffffffffffffffffffff1673ffffffffffffffffffffffffffffffffffffffff16815260200190815260200160002060006101000a81548160ff0219169083151502179055506001600560008473ffffffffffffffffffffffffffffffffffffffff1673ffffffffffffffffffffffffffffffffffffffff16815260200190815260200160002060006101000a81548160ff0219169083151502179055507ffd015379944f1fa7395803b791eb239f99b441be26e0ef3aca28decb16bf1903308484604051610c909392919061213a565b60405180910390a1505050565b60008054906101000a900473ffffffffffffffffffffffffffffffffffffffff1673ffffffffffffffffffffffffffffffffffffffff163373ffffffffffffffffffffffffffffffffffffffff1614610d2b576040517f08c379a0000000000000000000000000000000000000000000000000000000008152600401610d22906123cd565b60405180910390fd5b600360009054906101000a900460ff1615610d7b576040517f08c379a0000000000000000000000000000000000000000000000000000000008152600401610d72906122cd565b60405180910390fd5b806001541015610dc0576040517f08c379a0000000000000000000000000000000000000000000000000000000008152600401610db79061234d565b60405180910390fd5b8060016000828254610dd291906124a6565b9250508190555060008054906101000a900473ffffffffffffffffffffffffffffffffffffffff1673ffffffffffffffffffffffffffffffffffffffff166108fc829081150290604051600060405180830381858888f19350505050158015610e3f573d6000803e3d6000fd5b507ffc683a11a9b191bdfab4d71974db1d5e8d1323e8ae5606713e05bfe2ff30cf1d3060015483604051610e75939291906121fb565b60405180910390a150565b60011515600560003373ffffffffffffffffffffffffffffffffffffffff1673ffffffffffffffffffffffffffffffffffffffff16815260200190815260200160002060009054906101000a900460ff16151514610f13576040517f08c379a0000000000000000000000000000000000000000000000000000000008152600401610f0a9061228d565b60405180910390fd5b60011515600360009054906101000a900460ff16151514610f69576040517f08c379a0000000000000000000000000000000000000000000000000000000008152600401610f60906123ad565b60405180910390fd5b600454600760003373ffffffffffffffffffffffffffffffffffffffff1673ffffffffffffffffffffffffffffffffffffffff1681526020019081526020016000206000018190555080600760003373ffffffffffffffffffffffffffffffffffffffff1673ffffffffffffffffffffffffffffffffffffffff16815260200190815260200160002060010160006101000a81548173ffffffffffffffffffffffffffffffffffffffff021916908373ffffffffffffffffffffffffffffffffffffffff1602179055506000600760003373ffffffffffffffffffffffffffffffffffffffff1673ffffffffffffffffffffffffffffffffffffffff16815260200190815260200160002060010160146101000a81548160ff0219169083151502179055507f1e721b5b7ee2072a1f0ed5cc812719ce9be4df69815953b6da782c3c410ad1243060045433846040516110c594939291906121b6565b60405180910390a150565b60011515600560003373ffffffffffffffffffffffffffffffffffffffff1673ffffffffffffffffffffffffffffffffffffffff16815260200190815260200160002060009054906101000a900460ff16151514611163576040517f08c379a000000000000000000000000000000000000000000000000000000000815260040161115a9061228d565b60405180910390fd5b60011515600360009054906101000a900460ff161515146111b9576040517f08c379a00000000000000000000000000000000000000000000000000000000081526004016111b0906123ad565b60405180910390fd5b600254828290501015611201576040517f08c379a00000000000000000000000000000000000000000000000000000000081526004016111f8906122ad565b60405180910390fd5b60008060009054906101000a900473ffffffffffffffffffffffffffffffffffffffff1690506000806000805b868690508110156114df576000878783818110611274577f4e487b7100000000000000000000000000000000000000000000000000000000600052603260045260246000fd5b90506020020160208101906112899190611bc2565b905060011515600560008373ffffffffffffffffffffffffffffffffffffffff1673ffffffffffffffffffffffffffffffffffffffff16815260200190815260200160002060009054906101000a900460ff16151514156114be57600760008273ffffffffffffffffffffffffffffffffffffffff1673ffffffffffffffffffffffffffffffffffffffff16815260200190815260200160002060010160149054906101000a900460ff166114ac57600454600760008373ffffffffffffffffffffffffffffffffffffffff1673ffffffffffffffffffffffffffffffffffffffff16815260200190815260200160002060000154141561149a578873ffffffffffffffffffffffffffffffffffffffff16600760008373ffffffffffffffffffffffffffffffffffffffff1673ffffffffffffffffffffffffffffffffffffffff16815260200190815260200160002060010160009054906101000a900473ffffffffffffffffffffffffffffffffffffffff1673ffffffffffffffffffffffffffffffffffffffff161415611488576001600760008373ffffffffffffffffffffffffffffffffffffffff1673ffffffffffffffffffffffffffffffffffffffff16815260200190815260200160002060010160146101000a81548160ff021916908315150217905550848061148090612522565b955050611495565b81925060019350506114df565b6114a7565b81925060019350506114df565b6114b9565b81925060019350506114df565b6114cb565b81925060019350506114df565b5080806114d790612522565b91505061122e565b5081156115b45760005b818110156115b257600087878381811061152c577f4e487b7100000000000000000000000000000000000000000000000000000000600052603260045260246000fd5b90506020020160208101906115419190611bc2565b90506000600760008373ffffffffffffffffffffffffffffffffffffffff1673ffffffffffffffffffffffffffffffffffffffff16815260200190815260200160002060010160146101000a81548160ff0219169083151502179055505080806115aa90612522565b9150506114e9565b505b6002548310156115f9576040517f08c379a00000000000000000000000000000000000000000000000000000000081526004016115f09061230d565b60405180910390fd5b6000600360006101000a81548160ff021916908315150217905550866000806101000a81548173ffffffffffffffffffffffffffffffffffffffff021916908373ffffffffffffffffffffffffffffffffffffffff1602179055507ff0c9129a94f30f1caaceb63e44b9811d0a3edf1d6c23757f346093af5553fed03085896040516116879392919061213a565b60405180910390a150505050505050565b60008054906101000a900473ffffffffffffffffffffffffffffffffffffffff1673ffffffffffffffffffffffffffffffffffffffff163373ffffffffffffffffffffffffffffffffffffffff1614611726576040517f08c379a000000000000000000000000000000000000000000000000000000000815260040161171d906123cd565b60405180910390fd5b6000429050620151808161173a9190612450565b600660008473ffffffffffffffffffffffffffffffffffffffff1673ffffffffffffffffffffffffffffffffffffffff168152602001908152602001600020819055505050565b60008054906101000a900473ffffffffffffffffffffffffffffffffffffffff1681565b600360009054906101000a900460ff1681565b60076020528060005260406000206000915090508060000154908060010160009054906101000a900473ffffffffffffffffffffffffffffffffffffffff16908060010160149054906101000a900460ff16905083565b60045481565b60011515600560003373ffffffffffffffffffffffffffffffffffffffff1673ffffffffffffffffffffffffffffffffffffffff16815260200190815260200160002060009054906101000a900460ff161515146118a8576040517f08c379a000000000000000000000000000000000000000000000000000000000815260040161189f9061228d565b60405180910390fd5b60001515600360009054906101000a900460ff161515146118fe576040517f08c379a00000000000000000000000000000000000000000000000000000000081526004016118f5906122ed565b60405180910390fd5b6001600460008282546119119190612450565b925050819055506001600360006101000a81548160ff021916908315150217905550604051806060016040528060045481526020018273ffffffffffffffffffffffffffffffffffffffff16815260200160001515815250600760003373ffffffffffffffffffffffffffffffffffffffff1673ffffffffffffffffffffffffffffffffffffffff1681526020019081526020016000206000820151816000015560208201518160010160006101000a81548173ffffffffffffffffffffffffffffffffffffffff021916908373ffffffffffffffffffffffffffffffffffffffff16021790555060408201518160010160146101000a81548160ff0219169083151502179055509050507fc46d98493f65edb910ac463b3a1eaa7e62cb74e622eeec4071260050ac4305cb3033600454600254604051611a559493929190612171565b60405180910390a150565b60066020528060005260406000206000915090505481565b60008054906101000a900473ffffffffffffffffffffffffffffffffffffffff1673ffffffffffffffffffffffffffffffffffffffff163373ffffffffffffffffffffffffffffffffffffffff1614611b06576040517f08c379a0000000000000000000000000000000000000000000000000000000008152600401611afd906123cd565b60405180910390fd5b6000600660008373ffffffffffffffffffffffffffffffffffffffff1673ffffffffffffffffffffffffffffffffffffffff1681526020019081526020016000208190555050565b600081359050611b5d8161259a565b92915050565b60008083601f840112611b7557600080fd5b8235905067ffffffffffffffff811115611b8e57600080fd5b602083019150836020820283011115611ba657600080fd5b9250929050565b600081359050611bbc816125b1565b92915050565b600060208284031215611bd457600080fd5b6000611be284828501611b4e565b91505092915050565b60008060408385031215611bfe57600080fd5b6000611c0c85828601611b4e565b9250506020611c1d85828601611b4e565b9150509250929050565b600080600060408486031215611c3c57600080fd5b6000611c4a86828701611b4e565b935050602084013567ffffffffffffffff811115611c6757600080fd5b611c7386828701611b63565b92509250509250925092565b600060208284031215611c9157600080fd5b6000611c9f84828501611bad565b91505092915050565b611cb1816124da565b82525050565b611cc0816124ec565b82525050565b6000611cd3601d8361243f565b91507f477561726469616e20697320696e2072656d6f76616c20706572696f640000006000830152602082019050919050565b6000611d1360308361243f565b91507f43616e6e6f74207472616e7366657220677561726469616e20647572696e672060008301527f7265636f766572792070726f63657373000000000000000000000000000000006020830152604082019050919050565b6000611d7960268361243f565b91507f4f6e6c7920677561726469616e732063616e20706572666f726d20746869732060008301527f616374696f6e00000000000000000000000000000000000000000000000000006020830152604082019050919050565b6000611ddf60168361243f565b91507f496e73756666696369656e7420677561726469616e73000000000000000000006000830152602082019050919050565b6000611e1f602f8361243f565b91507f43616e6e6f742073656e64207472616e73616374696f6e20647572696e67207260008301527f65636f766572792070726f6365737300000000000000000000000000000000006020830152604082019050919050565b6000611e85601f8361243f565b91507f416c726561647920696e20746865207265636f766572792070726f63657373006000830152602082019050919050565b6000611ec560148361243f565b91507f496e73756666696369656e7420737570706f72740000000000000000000000006000830152602082019050919050565b6000611f05601e8361243f565b91507f477561726469616e2072656d6f76616c206e6f74207363686564756c656400006000830152602082019050919050565b6000611f4560328361243f565b91507f43616e6e6f74206e6f74207769746864726177206d6f7265207468616e20746f60008301527f74616c206465706f73697420616d6f756e7400000000000000000000000000006020830152604082019050919050565b6000611fab602d8361243f565b91507f4e657720677561726469616e2077617320616c7265616479206265656e20677560008301527f61726469616e206265666f7265000000000000000000000000000000000000006020830152604082019050919050565b600061201160228361243f565b91507f477561726469616e2072656d6f76616c20706572696f64206e6f74207061737360008301527f65640000000000000000000000000000000000000000000000000000000000006020830152604082019050919050565b600061207760208361243f565b91507f4f6e6c7920647572696e6720746865207265636f766572792070726f636573736000830152602082019050919050565b60006120b760228361243f565b91507f4f6e6c79206f776e65722063616e20706572666f726d2074686973206163746960008301527f6f6e0000000000000000000000000000000000000000000000000000000000006020830152604082019050919050565b61211981612518565b82525050565b60006020820190506121346000830184611ca8565b92915050565b600060608201905061214f6000830186611ca8565b61215c6020830185611ca8565b6121696040830184611ca8565b949350505050565b60006080820190506121866000830187611ca8565b6121936020830186611ca8565b6121a06040830185612110565b6121ad6060830184612110565b95945050505050565b60006080820190506121cb6000830187611ca8565b6121d86020830186612110565b6121e56040830185611ca8565b6121f26060830184611ca8565b95945050505050565b60006060820190506122106000830186611ca8565b61221d6020830185612110565b61222a6040830184612110565b949350505050565b60006020820190506122476000830184611cb7565b92915050565b6000602082019050818103600083015261226681611cc6565b9050919050565b6000602082019050818103600083015261228681611d06565b9050919050565b600060208201905081810360008301526122a681611d6c565b9050919050565b600060208201905081810360008301526122c681611dd2565b9050919050565b600060208201905081810360008301526122e681611e12565b9050919050565b6000602082019050818103600083015261230681611e78565b9050919050565b6000602082019050818103600083015261232681611eb8565b9050919050565b6000602082019050818103600083015261234681611ef8565b9050919050565b6000602082019050818103600083015261236681611f38565b9050919050565b6000602082019050818103600083015261238681611f9e565b9050919050565b600060208201905081810360008301526123a681612004565b9050919050565b600060208201905081810360008301526123c68161206a565b9050919050565b600060208201905081810360008301526123e6816120aa565b9050919050565b60006020820190506124026000830184612110565b92915050565b600060608201905061241d6000830186612110565b61242a6020830185611ca8565b6124376040830184611cb7565b949350505050565b600082825260208201905092915050565b600061245b82612518565b915061246683612518565b9250827fffffffffffffffffffffffffffffffffffffffffffffffffffffffffffffffff0382111561249b5761249a61256b565b5b828201905092915050565b60006124b182612518565b91506124bc83612518565b9250828210156124cf576124ce61256b565b5b828203905092915050565b60006124e5826124f8565b9050919050565b60008115159050919050565b600073ffffffffffffffffffffffffffffffffffffffff82169050919050565b6000819050919050565b600061252d82612518565b91507fffffffffffffffffffffffffffffffffffffffffffffffffffffffffffffffff8214156125605761255f61256b565b5b600182019050919050565b7f4e487b7100000000000000000000000000000000000000000000000000000000600052601160045260246000fd5b6125a3816124da565b81146125ae57600080fd5b50565b6125ba81612518565b81146125c557600080fd5b5056fea2646970667358221220b885a069df1732b10fc7c1a5a59f3464a640847ed64281792367813cbdd5b57664736f6c63430008000033",
  "immutableReferences": {},
  "source": "// SPDX-License-Identifier: MIT\npragma solidity ^0.8.0;\n\ncontract SocialRecoveryWallet{\n    address public owner; // Wallet \n    uint totalDepositAmount;\n    uint public threshold; // guardian \n    bool public isRecovering; // \n    uint public currRecoveryRound; // \n    /*\n     guardian  value  false\n     guardian  value  true\n    */\n    struct RecoverInfo {\n        uint recoveryRound; // \n        address newOwnerAddr; //  Owner \n        bool used; //  Guardian  Recover  true\n                   //  executeRecovery  Recovery  true\n                   // \n    }\n    mapping(address => bool) isGuardian; // Wallet \n    mapping(address => uint256) public guardianRemovalPeriod; // \n    mapping(address => RecoverInfo) public guardianToRecovery; // \n    \n    modifier onlyOwner() { // sender  owner address ( owner )\n        require(msg.sender == owner, \"Only owner can perform this action\");\n        _;\n    }\n    modifier onlyGuardian() { // sender  guardian address  ( guardian )\n        require(isGuardian[msg.sender] == true, \"Only guardians can perform this action\");\n        _;\n    }\n    modifier onlyInRecovery() { //\n        require(isRecovering == true, \"Only during the recovery process\");\n        _;\n    }\n    event RecoveryStart(address contractAddress, address initator,  uint currentRecoveryRound, uint threshold);\n    event GuardianSupportRecovery(address contractAddress, uint currentRecoveryRound, address guardianAddr, address newOwnerAddr);\n    event RecoverySuccess(address contractAddress, address oldOwnerAddr, address newOwnerAddr);\n    event RemoveGuardianSuccess(address contractAddress, address removeOldGuardian, address AddNewGuardian);\n    event DepositMoneySuccess(address contractAddress, uint totalether, uint deposit);\n    event WithdrawMoneySuccess(address contractAddress, uint totalether, uint withdraw);\n\n    constructor(uint _threshold, address[] memory _initialGuardians) {\n        owner = msg.sender; // Wallet \n        threshold = _threshold; //  Guardian  owner \n        require(_initialGuardians.length >= _threshold,\"Initial guardian amount can't less than threshold number\");\n        //  guardian\n        for (uint i = 0; i < _initialGuardians.length; i++) {\n            address guardian = _initialGuardians[i];\n            isGuardian[guardian] = true;\n        }\n    }\n    function depositMoney() external payable onlyOwner{\n        require(!isRecovering, \"Cannot send transaction during recovery process\");\n        totalDepositAmount += msg.value;\n        emit DepositMoneySuccess(address(this), totalDepositAmount, msg.value);\n    }\n    function withdrawMoney(uint withdrawValue) external payable onlyOwner{\n        require(!isRecovering, \"Cannot send transaction during recovery process\");\n        require(totalDepositAmount>=withdrawValue, \"Cannot not withdraw more than total deposit amount\");\n        totalDepositAmount -= withdrawValue;\n        payable(owner).transfer(withdrawValue);\n        emit WithdrawMoneySuccess(address(this), totalDepositAmount, withdrawValue);\n    }\n    function getBalance() external view onlyOwner returns(uint balance){\n        return(totalDepositAmount);\n    }\n    function removeGuardian(address removingGuardian) external onlyOwner {\n        //  Removal Period  timestamp + 1 Days\n        uint256 currentTimestamp = block.timestamp;\n        guardianRemovalPeriod[removingGuardian] = currentTimestamp + 86400;\n    }\n    function executeGuardianRemoval(address removingGuardian, address newGuardian) external onlyOwner {\n        //  oldGuardian \n        require(guardianRemovalPeriod[removingGuardian] != 0, \"Guardian removal not scheduled\");\n        //  Removal Period \n        uint256 currentTimestamp = block.timestamp;\n        require(currentTimestamp > guardianRemovalPeriod[removingGuardian], \"Guardian removal period not passed\");\n        //  new Guardian  \n        require(isGuardian[newGuardian]==false, \"New guardian was already been guardian before\");\n        //  Removal Period Timestamp  0 (means not in Removal Period)\n        guardianRemovalPeriod[removingGuardian] = 0;\n        //  Guardian Data Structures\n        isGuardian[removingGuardian] = false;\n        isGuardian[newGuardian] = true;\n        emit RemoveGuardianSuccess(address(this), removingGuardian, newGuardian);\n    }\n    function cancelGuardianRemoval(address removingGuardian) onlyOwner external {\n        //  Removal Period Timestamp  0 (means not in Removal Period)\n        guardianRemovalPeriod[removingGuardian] = 0;\n    }\n    function transferGuardian(address newGuardian) external onlyGuardian{\n       //  Recovery Period\n       require(!isRecovering, \"Cannot transfer guardian during recovery process\");\n       //  msg.sender Guardian  Removal Period\n       require(guardianRemovalPeriod[msg.sender] == 0, \"Guardian is in removal period\");\n       //  Guardian Data Structures\n       isGuardian[newGuardian] = true;\n       isGuardian[msg.sender] = false;\n    }\n    // Guardian  Recovery\n    function initiateRecovery(address _newOwnerAddr) onlyGuardian external {\n       //  Recoveringcheck isRecovering == false\n       require(isRecovering == false,\"Already in the recovery process\");\n       // \n       currRecoveryRound += 1;\n       // \n       isRecovering = true;\n       //  guardianToRecovery[msg.sender] \n       guardianToRecovery[msg.sender] = RecoverInfo(currRecoveryRound, _newOwnerAddr, false);\n       emit RecoveryStart(address(this), msg.sender,  currRecoveryRound, threshold);\n    }\n    // Guardian  Recovery \n    function supportRecovery(address _newOwnerAddr) onlyGuardian onlyInRecovery external {\n       //  guardianToRecovery[msg.sender] \n       guardianToRecovery[msg.sender].recoveryRound = currRecoveryRound;\n       guardianToRecovery[msg.sender].newOwnerAddr = _newOwnerAddr;\n       guardianToRecovery[msg.sender].used = false;\n       emit GuardianSupportRecovery(address(this), currRecoveryRound, msg.sender, _newOwnerAddr);\n    }\n    // Owner  Recovery \n    function cancelRecovery() onlyOwner onlyInRecovery external {\n        // \n        isRecovering = false;\n    }\n    //  Recovery\n    function executeRecovery(address newOwner, address[] calldata guardianList) onlyGuardian onlyInRecovery external {\n        //  guardianList  threshold\n        require(guardianList.length >= threshold, \"Insufficient guardians\");\n        address oldOwner = owner;\n        uint supportCount = 0;\n        bool somethingWrong = false;\n        uint index = 0;\n        for (uint i = 0; i < guardianList.length; i++) {\n            address guardian = guardianList[i];\n            //  Guardian\n            if(isGuardian[guardian]==true){\n                //  Guardian  used == false\n                if(!guardianToRecovery[guardian].used){\n                    //  Guardian  RecoveryRound == currRecoveryRound\n                    if(guardianToRecovery[guardian].recoveryRound == currRecoveryRound){\n                        //  Guardian  newOwnerAddr == newOwner\n                        if(guardianToRecovery[guardian].newOwnerAddr == newOwner){\n                            //  Guardian  used = true\n                            guardianToRecovery[guardian].used = true;\n                            supportCount++;\n                        }else{\n                            index = i;\n                            somethingWrong = true;\n                            break;\n                        }\n                    }else{\n                        index = i;\n                        somethingWrong = true;\n                        break;\n                    }\n                }else{\n                    index = i;\n                    somethingWrong = true;\n                    break;\n                }\n            }else{\n                index = i;\n                somethingWrong = true;\n                break;\n            }\n        }\n        if(somethingWrong){\n            for (uint i = 0; i < index; i++) {\n                address guardian = guardianList[i];\n                guardianToRecovery[guardian].used = false;\n            }\n        }\n        require(supportCount >= threshold, \"Insufficient support\");\n        //  Revert Recovery\n        isRecovering = false;\n        //  Owner \n        owner = newOwner;\n        emit RecoverySuccess(address(this), oldOwner, newOwner);\n    }\n    function getIsGuardianOrNot(address guardian) external view returns(bool isGuard){\n        isGuard = isGuardian[guardian];\n        return(isGuard);\n    }\n}\n\n\n// \n/*\n    function executeRecovery(address newOwner, address[] calldata guardianList) onlyGuardian onlyInRecovery external {\n        //  guardianList  threshold\n        require(guardianList.length >= threshold, \"Insufficient guardians\");\n        uint supportCount = 0;\n        for (uint i = 0; i < guardianList.length; i++) {\n            address guardian = guardianList[i];\n            //  Guardian\n            require(isGuardian[guardian], \"Invalid guardian\");\n            //  Guardian  used == false\n            require(!guardianToRecovery[guardian].used, \"Recovery support already used\");\n            //  Guardian  RecoveryRound == currRecoveryRound\n            require(guardianToRecovery[guardian].recoveryRound == currRecoveryRound, \"Invalid recovery round\");\n            //  Guardian  newOwnerAddr == newOwner\n            require(guardianToRecovery[guardian].newOwnerAddr == newOwner, \"Invalid new owner address\");\n            //  Guardian  used = true\n            guardianToRecovery[guardian].used = true;\n            supportCount++;\n        }\n        require(supportCount >= threshold, \"Insufficient support\");\n        //  Revert Recovery\n        isRecovering = false;\n        //  Owner \n        owner = newOwner;\n    }\n*/\n//  guardian  owner \n//   guardians  Support address \n//           addree  threshold - 1  Support\n//           for threshold - 1 \n//           guardian  owner  guardian \n\n// \n//        gas  Guardian  gas \n\n\n\n\n",
  "sourcePath": "/Users/daniel_wang/blockchain/social-recovery-dapp/Social_Recovery/contracts/SocialRecoveryWallet.sol",
  "compiler": {
    "name": "solc",
    "version": "0.8.0+commit.c7dfd78e.Emscripten.clang"
  },
  "schemaVersion": "3.4.15",
  "updatedAt": "2024-04-27T07:14:42.759Z",
  "networkType": "ethereum",
  "devdoc": {
    "kind": "dev",
    "methods": {},
    "version": 1
  },
  "userdoc": {
    "kind": "user",
    "methods": {},
    "version": 1
  }
}